:0608D4000149000148008B
:1007CB00E4F5241209B51209ED12085812092B8011
:1007DB002C7849E61460FA24F1601824DF60F224C7
:1007EB003170207849760112077CEF70E4784976F6
:1007FB003180DE120A70784BEFF61209D1E478499A
:09080B00F680CEE47849F680C8BD
:1009B500B2C2120A42B2C2120A42B2C2120A42B20A
:0C09C500C2120A42B2C2120A42B2C2229E
:1009ED007580FF7590FF75A0FF75B0FF75C0FFC2D4
:0809FD00C3D289D2A8D2AF22B7
:0A0A4F0000007F057E49DEFEDFFC9B
:010A5900227A
:080952008F2F8E2E8D2D8C2CB1
:10095A00E4F530F531F532F533782C74FF1202C81C
:0B096A00EC4D4E4F6005120A4F80EE6E
:01097500225F
:0C0A42007F117ED07D1BDDFEDEFCDFFAA4
:010A4E002285
:0300030002089957
:10089900C0E0C0F0C083C082C0D075D000C000C025
:1008A90001C002C003C004C005C006C0071204EDA0
:1008B900D007D006D005D004D003D002D001D00093
:0B08C900D0D0D082D083D0F0D0E0323D
:1009D1008F25E5257009120A20754801B2C222E56A
:0C09E10048B40107B2C2AF25120A202260
:100006007A68756F2079756520676F6E67206368FB
:10001600656E672073686900000000000000716962
:10002600616E206A696E000000000000000000009A
:10003600000000000000000000000000686F75204E
:100046007475690000000000000000000000000058
:10005600000000000000000000007869616E672063
:100066007A756F000000000000000000000000002C
:1000760000000000000000007869616E6720796F5B
:1000860075000000000000000000000000000000F5
:100096000000000000007869616E672062656920D3
:1000A6007A6F7500000000000000000000000000EC
:1000B600000000007869616E67206E616E207A6FBD
:1000C60075000000000000000000000000000000B5
:1000D60000007869616E67207869207A6F75000084
:1000E600000000000000000000000000000000000A
:1000F6007869616E6720646F6E67207A6F7500009D
:10010600000000000000000000000000000074690C
:100116006E67207A68690000000000000000000099
:10012600000000000000000000000000716920646B
:100136006F6E670000000000000000000000000075
:100146000000000000000000000079692068616F6F
:10015600206D75206269616F0000000000000000DC
:10016600000000000000000065722068616F206DCD
:1001760075206269616F0000000000000000000049
:1001860000000000000073616E2068616F206D75CD
:10019600206269616F00000000000000000000009E
:1001A6000000000073692068616F206D7520626928
:1001B600616F000000000000000000000000000069
:1001C60000006B61692073686920636169206A6950
:1001D6000000000000000000000000000000000019
:1001E600636169206A692077616E206368656E675E
:1001F600000000000000000000000000000064692C
:100206006E6720776569206D6F207368690000004E
:1002160000000000000000000000000066616E673C
:10022600207869616E67206D6F2073686900000031
:1002360000000000000000000000000000000000B8
:1002460000000000000000000000000000000000A8
:100256000000000000000000000102030401020388
:0C0266000405060B0C0D0E0708090A0029
:10085800D2B57F057E007D007C00120952C2B57FAB
:10086800057E007D007C00120952D2B57F057E000E
:100878007D007C00120952C2A17F057E007D007CAC
:1008880000120952D2A17F057E007D007C0002097A
:01089800520D
:100451007F06120A657D357F17120A5A7F0A7E00D0
:100461007D007C001209527F06120A657D037F8997
:10047100120A5A7F057E007D007C001209527D43DD
:100481007FCF120A5A7F057E007D007C001209523F
:100491007D027FCB120A5A7D0A7F11120A5AE4FDAE
:1004A1007F1E120A5A7D3F7F19120A5A7D487F1B0F
:1004B100120A5A7D1F7F1D120A5A7F0A7E007D0093
:1004C1007C001209527D047FCD120A5A7F057E00FD
:1004D1007D007C00120952E4FD7FB9120A5A7D4F5A
:0C04E1007FCF120A5A7DFF7F6F020A5A7B
:10071D00120451E4FD7FBD120A5A7D487F17120A5B
:10072D005A7F0A7E007D007C001209527D807F3C3D
:10073D00120A5A7D077F3E120A5A7DFF7F38120A30
:10074D005A7D077F3A120A5AE4FD7F40120A5A7DFC
:10075D00087F42120A5AE4FD7F44120A5A7D087F2F
:0F076D0046120A5A7F017E007D007C000209526D
:1004ED00E4F523C2A87F2B120A65784AA607E4FD1E
:1004FD007F29120A5AE4FD7F02120A5A784AE63021
:10050D00E42D7FB2120A65EF642170237FBF120ABA
:10051D0065BF351B7FBA120A658F23E523D394007F
:10052D00400DE523D3940450067849761080047865
:10053D00497611E4FD7F2B120A5AE4FD7F1C120A45
:10054D005AE4FD7F29120A5AE4FD7F02120A5AE489
:10055D00FD7F2B120A5AE4FD7FBA120A5AE4FD7F81
:10056D00BC120A5A7D017F08120A5AE4FD7F081257
:04057D000A5AD2A89C
:010581002257
:10077C00E4F525F526F525120A767F327E007D00FC
:10078C007C001209521203B4EF700280117F0A7EB2
:10079C00007D007C00120952120582EF70101208C5
:1007AC00587F327E007D007C001209528005752630
:0E07BC000180090525E525C3940540BBAF2645
:0107CA00220C
:10090200E4F52BF52A7FB2120A65BF2105752B018A
:1009120080147F0A7E007D007C00120952052AE5C0
:080922002AC3940A40DFAF2B49
:01092A0022AA
:030A760002071D57
:10058200C2A87D257F35120A5A7D097F1C120A5A9C
:100592007D207FBD120A5A7D017F08120A5A7F010F
:1005A2007E007D007C00120952E4FD7F08120A5A87
:1005B2007F017E007D007C00120952120902EF7059
:1005C20002FF227D0B7F1C120A5A7DFF7FB2120AA4
:1005D2005A7F017E007D007C001209527D067F3722
:1005E200120A5A7F017E007D007C001209527D06AC
:1005F2007F37120A5A7F057E007D007C0012095265
:100602007D107F29120A5AE4FD7FBD120A5AD2A830
:030612007F012243
:1003B400752801E4F527120902EF7005F5280204F7
:1003C4004EE52790025E93FD7FC1120A5AE4FD7F39
:1003D400C3120A5A7D047F08120A5A7F017E007DE7
:1003E400007C00120952E4FD7F08120A5A7F017E44
:1003F400007D007C00120952E4F52975F01EE52702
:10040400A42406F582E5F03400F583E5822529F578
:1004140082E43583F583E493FD600E7F05120A5A66
:100424000529E529C3941E40D2AD297FB9120A5A81
:100434007DFF7FB2120A5A7D047F37120A5A0527BC
:0C044400E527C3941450030203BAAF284C
:010450002289
:060A70007FC5120A652299
:0B0A5A00908100EFF0908000EDF02292
:0B0A6500908100EFF0908000E0FF2285
:1008DA0002082580050AFD000202FD051EFD000230
:1008EA0003FC0514FD000204FB0519FD000221DECC
:0708FA00050FFD00028877E5
:10092B00759850758920AE08AF09AB07AA06E4F994
:10093B00F8FF7EE1FDFC1208141202B88F8B8F8D2D
:07094B00D28ED2ACD2AF2224
:060A1A0014F9120272FF44
:0E0A2000C2ACC2998F993099FDC299D2AC2216
:100996008B3F8A408941AB3FAA40A941120272604F
:0F09A6000D0541E54170020540120A1A80E82252
:060976008B428A43894414
:10097C00E4FEEEC39D5012AB420544E544AA43701D
:09098C00020543120A1A0E80E96B
:01099500223F
:0806A1008F348B358A3689374E
:1006A900E4F53EFFFE120A058F3D7538FDE4F53984
:1006B900E53D2403F53A753B01E534C454F04401A2
:1006C900F53CE4FEFF74382FF8E6623E0FBF0001E7
:1006D9000EEF64054E70EEE4FEFFC3EF953DEE9418
:1006E900005016AB35AA36A9378F828E8312028B3A
:1006F900623E0FBF00010E80E17B007A0079387DF0
:1007090005120976AB35AA36A937AD3D120976AF80
:040719003E020A2072
:060A2E008B458A46894752
:0E0A3400120A05AD07AB45AA46A9470209768E
:03000000020615E0
:0C061500787FE4F6D8FD75814B02065C8E
:10027200BB010689828A83E0225002E722BBFE028A
:09028200E32289828A83E49322BD
:10028B00BB010CE58229F582E5833AF583E0225028
:10029B0006E92582F8E622BBFE06E92582F8E22272
:0D02AB00E58229F582E5833AF583E493228C
:10081400C2D5E830E70FB2D5E4C39BFBE49AFAE40F
:1008240099F9E498F8EC30E717B2D512084A1203A4
:1008340022E4C39BFBE49AFAE499F9E498F8800370
:1008440012032230D50DE4C39FFFE49EFEE49DFD18
:04085400E49CFC2202
:0E02B800C3E49FFFE49EFEE49DFDE49CFC2257
:1002C6007401FF3395E0FEFDFC080808E6CF2FF623
:1002D60018E6CE3EF618E6CD3DF618E6CC3CF622FC
:100A0500E4FFFE120272600C0FEF70010E09E9702F
:050A1500F20A80EF224F
:100621000207CBE493A3F8E493A34003F68001F21D
:1006310008DFF48029E493A3F85407240CC8C333DA
:10064100C4540F4420C8834004F456800146F6DFA9
:10065100E4800B01020408102040809008D4E47E5D
:10066100019360BCA3FF543F30E509541FFEE4939E
:10067100A360010ECF54C025E060A840B8E493A365
:10068100FAE493A3F8E493A3C8C582C8CAC583CA90
:10069100F0A3C8C582C8CAC583CADFE9DEE780BE48
:0109010000F5
:1002E60075F008758200EF2FFFEE33FECD33CDCCCF
:1002F60033CCC58233C5829BED9AEC99E582984052
:100306000CF582EE9BFEED9AFDEC99FC0FD5F0D62E
:10031600E4CEFBE4CDFAE4CCF9A88222B800C1B958
:100326000059BA002DEC8BF084CFCECDFCE5F0CB96
:10033600F97818EF2FFFEE33FEED33FDEC33FCEBCF
:1003460033FB10D703994004EB99FB0FD8E5E4F98A
:10035600FA227818EF2FFFEE33FEED33FDEC33FC77
:10036600C933C910D7059BE99A4007EC9BFCE99A6B
:10037600F90FD8E0E4C9FAE4CCFB2275F010EF2FB0
:10038600FFEE33FEED33FDCC33CCC833C810D707B0
:100396009BEC9AE899400AED9BFDEC9AFCE899F8EB
:0E03A6000FD5F0DAE4CDFBE4CCFAE4C8F9227E
:00000001FF
