:020000040800F2
:1000000018150020A51B0008C91B0008CB1B000801
:10001000CF1B0008D31B0008D71B000800000000FE
:10002000000000000000000000000000DB1B0008D2
:10003000DD1B000800000000DF1B0008BD1B0008DE
:10004000BF1B0008BF1B0008BF1B0008BF1B000828
:10005000BF1B0008BF1B0008E1060008F3060008EC
:10006000BF1B0008BF1B0008ED470008BF1B0008AE
:10007000BF1B0008BF1B0008BF1B0008BF1B0008F8
:10008000BF1B0008BF1B0008BF1B0008D1030008EE
:10009000ED030008BF1B0008BF1B0008BF1B0008C2
:1000A000BF1B0008BF1B0008BF1B0008BF1B0008C8
:1000B00055080008BF1B0008BF1B0008BF1B000835
:1000C000BF1B0008BF1B0008BF1B0008BF1B0008A8
:1000D000BF1B0008AF1A0008D71A0008011B000850
:1000E000BF1B0008BF1B0008BF1B0008BF1B000888
:1000F000BF1B0008BF1B0008BF1B0008BF1B000878
:10010000BF1B0008BF1B0008BF1B0008BF1B000867
:100110001B1B0008431B000873080008BF1B0008D6
:10012000BF1B0008BF1B0008BF1B0008BF1B000847
:10013000BF1B0008BF1B0008BF1B00084B050008C1
:1001400067050008BF1B0008BF1B0008BF1B000895
:10015000BF1B0008BF1B0008BF1B0008651B000871
:10016000BF1B0008BF1B0008BF1B0008BF1B000807
:10017000BF1B0008BF1B0008BF1B0008BF1B0008F7
:10018000BF1B0008BF1B0008DFF80CD00BF010F8F5
:10019000004800479D010008181500204FF47A70B0
:1001A00000F0FCF900F064F81CE0204800682049E9
:1001B0000968884216D01E4800681C4908601C481F
:1001C000007800F0010018B905F0FFFF04F027FEE9
:1001D000174800680A21B0FBF1F201FB120008B9D0
:1001E00004F06EFDE1E700B52DED068B85B01148FA
:1001F00000680AF059FE41EC1A0B0F4800680AF03B
:1002000053FE41EC180B0D4800680AF04DFE41EC1E
:10021000190B8DED02AB8DED008B53EC192B08A063
:100220000BF010F805B0BDEC068B00BD08000020F7
:1002300004000020100200201802002014020020F8
:100240002D526F6C6C203A2025332E3266202C20E4
:100250005069746368203A2025332E3266202C20A2
:10026000596177203A2025332E3266200A0000009B
:1002700010B54FF4A06001F0B3FC00F00DF800F0F1
:1002800013FB00F021F800F0D3F801F09CF900F026
:1002900067FA00F088FA10BD1CB50121172002F0A2
:1002A0007BFF01208DF8040000208DF8060003205C
:1002B0008DF8050040F2012000906946014802F0E7
:1002C00025FD1CBD0004024000B58BB0012108468D
:1002D00002F062FF0121480602F091FF09220B2182
:1002E0004F4802F09EFD09220C214D4802F099FD75
:1002F0004FF4C050029002208DF80C0002A948482B
:1003000002F004FD14208DF8040002208DF8050091
:1003100001208DF806008DF8070001A801F065FCAA
:1003200013208DF8040001208DF805008DF80600DB
:100330008DF8070001A801F058FC3A4801F0F2FEE0
:1003400008A802F013F800208DF826008DF8270089
:100350008DF828008DF829008DF82A0001208DF8ED
:100360002B0000208DF822008DF8230008208DF846
:10037000240003208DF825000620ADF8200008A9F0
:10038000284801F0E8FE00208DF81A008DF81B00C7
:1003900001208DF81C000020ADF81000ADF812000F
:1003A000ADF81400ADF81600ADF8180001208DF876
:1003B0001D0004A801F059FF01220221194802F092
:1003C00053FA01221146174802F04EFA0BB000BD55
:1003D00010B50121134802F0AFFA30B101211148E4
:1003E00002F045FB01201049086010BD00B585B042
:1003F00002210C4802F0A0FA78B10421094802F069
:1004000036FB0A49074802F074FA6A46002105489B
:1004100002F00FF9684606F0D2FC05B000BD0000FE
:100420000000024000640040040300200800003285
:1004300000B58BB00121022002F0AEFE012188063A
:1004400002F0DDFE09220C21514802F0EAFC0922EB
:100450000D214F4802F0E5FC4FF44050029002207D
:100460008DF80C0000208DF80E0003208DF80D0093
:1004700001208DF80F0002A9454802F047FC3F20FB
:100480008DF8040002208DF8050001208DF806008B
:100490008DF8070001A801F0A8FB40208DF80400AA
:1004A00001208DF805008DF806008DF8070001A8E1
:1004B00001F09BFB374801F035FE08A801F056FF1C
:1004C00000208DF826008DF827008DF828008DF883
:1004D00029008DF82A0001208DF82B0000208DF8CE
:1004E00022008DF8230008208DF8240003208DF8C9
:1004F0002500ADF8200008A9264801F02CFE0E20AA
:100500008DF81A0000208DF81B0001208DF81C00CA
:100510000020ADF81000ADF81200ADF81400ADF8F1
:100520001600ADF8180001208DF81D0004A801F098
:100530009CFE01220221174802F096F90122114681
:10054000144802F091F90BB000BD10B5012111481B
:1005500002F0F2F930B101210E4802F088FA0120D0
:100560000D49086010BD00B585B00221094802F0B0
:10057000E3F958B10221074802F079FA6A460021EE
:10058000044802F056F8684606F0ABFF05B000BD1F
:1005900000040240006800400803002010B500215C
:1005A00007E04AF2104200BF131EA2F10102FBD184
:1005B000491C8142F5D310BD10B5002106E0282268
:1005C00000BF131EA2F10102FBD1491C8142F6D3E8
:1005D00010BD10B5002107E04AF2104200BF131E03
:1005E000A2F10102FBD1491C8142F5D310BD10B527
:1005F000002106E0282200BF131EA2F10102FBD158
:10060000491C8142F6D310BD00B585B00121880395
:1006100002F006FE0121142002F0BEFD00208DF83C
:1006200010008DF8120001208DF8130000208DF8C5
:1006300011000320039003A9324802F067FB6020F9
:10064000039003A9304802F061FB0021022002F070
:10065000EFFE0121022002F0EBFE0521042002F052
:10066000E7FE0621042002F0E3FE63200190002053
:100670008DF808000C208DF8090001208DF80A0083
:1006800001A802F055FA06208DF8000002208DF82E
:10069000010001208DF802008DF80300684601F08A
:1006A000A4FA07208DF8000002208DF801008DF8D3
:1006B000020001208DF80300684601F096FA172029
:1006C0008DF8000002208DF8010003208DF8020053
:1006D00001208DF80300684601F087FA05B000BDDF
:1006E00010B5012002F08AFA10B1012002F097FA49
:1006F00010BD10B5022002F081FA10B1022002F004
:100700008EFA10BD00080240001002400EB5012113
:10071000022002F085FD4FF0FF300190A720ADF8D8
:1007200000000020ADF80800ADF8020001215B4890
:1007300002F0CEFF6946594802F05FFF0121574899
:1007400002F0C6FF00221146544802F093FF012137
:10075000524802F0A5FF0121504802F0D7FF0EBD1C
:100760001FB50121102002F04AFD36208DF800004F
:1007700000208DF801008DF8020001208DF80300A3
:10078000684601F032FA5320ADF804000020ADF8BD
:100790000600ADF80C0041F28830029001A94048F3
:1007A00002F02BFF1FBD10B501213D4802F0AEFF46
:1007B000012211463A4803F0C1FB0121384803F0F9
:1007C000D1FB10BD0EB50121042002F018FD4FF041
:1007D000FF300190A720ADF800000020ADF8080020
:1007E000ADF8020001212F4802F072FF69462D4842
:1007F00002F003FF01212B4802F06AFF002211469C
:10080000284802F037FF0121264802F049FF012164
:10081000244802F07BFF0EBD0EB50121084602F010
:10082000EEFC4FF0FF3001905320ADF800000020A7
:10083000ADF80800ADF802000121880702F048FF7A
:1008400069464FF0804002F0D8FE0121880702F08F
:100850005DFF0EBD10B50121880703F086FB38B19E
:100860000121880703F092FB0121880703F07AFB3E
:1008700010BD10B501210A4803F077FB48B10121F2
:10088000074803F083FB0121054803F06BFB05F0EB
:10089000C2FC10BD4FF08040406A70470004014028
:1008A000001000400008004000B58DB00121042078
:1008B00002F072FC0121080202F0B2FC0C200B9045
:1008C00003208DF8300000208DF833000BA9A148DB
:1008D00002F01CFA0121080202F00AFD00214FF487
:1008E000807002F005FD002007900A9009904FF4F7
:1008F0008030089007A801F01DFA002001908DF8C3
:1009000008008DF809000390059001208DF818006B
:1009100001A9914801F0DFF901218F4801F021FA86
:100920000DB000BD10B504460723012221468A48B8
:1009300001F057FA884801F0B0FA00BF022186485A
:1009400001F0CCFB0028F9D0834801F0E2FA10BD99
:100950002DE9F04107460C460025002608E0384600
:10096000FFF7E0FF05440520FFF718FE701CC6B234
:10097000A642F4DBB5FBF4F080B2BDE8F08170B5BF
:100980002DED0C8B00250C20FFF7CCFF00EE100A9C
:10099000B8EE400A714880ED000A0D20FFF7C2FF53
:1009A00000EE100AB8EE400A6D4880ED000A6B4870
:1009B00090ED000ABCEEC00A10EE100A82B269483F
:1009C00001780078401C674B1870674820F81120A8
:1009D000634890ED000ABCEEC00A10EE100A81B226
:1009E000624802780078401C604B1870604820F81C
:1009F00012105C4800780F2802DB0020594908706B
:100A00005A4800780F2802DB00205849087000255A
:100A1000002405E0544830F814000544601CC4B2BA
:100A20000F2CF7DB0F20B5FBF0F000EE100AB8EE4C
:100A3000400A4A4880ED000A0025002405E04C48A1
:100A400030F814000544601CC4B20F2CF7DB0F20F3
:100A5000B5FBF0F000EE100AB8EE400A404880ED19
:100A6000000A3E4800680AF01FFA41EC1D0B9FED9A
:100A7000410B53EC102B0AF006F941EC1C0B9FEDD7
:100A80003F0B53EC102B0AF070F941EC1B0B9FED60
:100A90003D0B53EC102B0AF0F6F841EC1A0B9FEDCE
:100AA0003B0B53EC102B0AF0EEF841EC190B9FEDC9
:100AB000390B53EC102B0AF058F941EC180B0AF0E3
:100AC00037FA26490860264800680AF0EDF941EC3B
:100AD0001D0B9FED280B53EC102B0AF0D4F841ECC2
:100AE0001C0B9FED260B53EC102B0AF03EF941EC4A
:100AF0001B0B9FED240B53EC102B0AF0C4F841ECB8
:100B00001A0B9FED220B53EC102B0AF0BCF841ECB2
:100B1000190B9FED200B53EC102B0AF026F941EC3A
:100B2000180B0AF005FA0E4908600C4890ED000A0F
:100B3000DFED1A0A30EEC00A80ED000A084690ED9B
:100B4000000ADFED170A30EEC00A80ED000ABDECA6
:100B50000C8B70BD0008024000200140B001002055
:100B6000B40100200C0000203C0500200D000020F6
:100B700078050020000000000000F03F00000000A9
:100B80000000B040000000000080764066666666A7
:100B900066660A4000000000000014400000284380
:100BA0000000294370B504460D4600BF4021FD48B2
:100BB00003F079FC0028F9D0E1B2FA4803F0C3FB56
:100BC000204670BD70B504460D462946204603F008
:100BD000BAFB00BF8021204603F065FC0028F9D055
:100BE00070BD10B52DED0C8B0446EF48007828B988
:100BF000552C03D10120EC490870D2E2EA48007874
:100C0000012808D1512C06D10220E74908700020A4
:100C1000E6490870C5E2E4480078012808D1522C62
:100C200006D10320E04908700020E0490870B8E2CE
:100C3000DD480078012808D1532C06D10420DA4978
:100C400008700020D9490870ABE2D7480078012825
:100C500008D1592C06D10520D34908700020D3496A
:100C600008709EE2D048007801287CDDCF480178EA
:100C70000078401CCD4A1070CD484454104600788E
:100C80000828BADB0120CB490870C7480078022841
:100C90006AD1C948C6490A680260898881800146CC
:100CA000B1F900000AF0D0F841EC1C0B9FEDC30B2A
:100CB00053EC102B09F0E7FF41EC1B0B9FEDC10B30
:100CC00053EC102B0AF051F841EC1A0B9FEDBF0BBF
:100CD00053EC102B09F0D7FF41EC190B9FEDBD0B26
:100CE00053EC102B09F0CFFF41EC180B0AF020F960
:100CF000BA490860B049B1F902000AF0A5F841EC20
:100D00001C0B9FEDAE0B53EC102B09F0BCFF41EC1C
:100D10001B0B9FEDAC0B53EC102B0AF026F841ECAB
:100D20001A0B9FEDAA0B53EC102B09F0ACFF41EC12
:100D3000190B9FEDA80B53EC102B09F0A4FF41EC0D
:100D4000180B0AF0F5F8A64908609B49B1F90400B0
:100D50000AF07AF841EC1C0B9FED980B53EC102B2A
:100D600009F091FF01E019E21EE041EC1B0B9FED41
:100D7000950B53EC102B09F0F8FF41EC1A0B9FED8B
:100D8000930B53EC102B09F07EFF41EC190B9FEDF8
:100D9000910B53EC102B09F076FF41EC180B0AF085
:100DA000C7F890490860F5E17F48007803287DD1B5
:100DB0008D487F490A680260898881800146B1F9BF
:100DC00000000AF041F841EC1D0B9FED7C0B53EC49
:100DD000102B09F058FF41EC1C0B9FED7A0B53ECE4
:100DE000102B09F0C2FF41EC1B0B9FED800B53EC65
:100DF000102B09F048FF41EC1A0B9FED7E0B53ECD2
:100E0000102B09F0B2FF41EC190B9FED7C0B53EC5A
:100E1000102B09F038FF41EC180B0AF089F87949DA
:100E200008607149B1F902000AF00EF841EC1D0B9F
:100E30009FED620B53EC102B09F025FF41EC1C0BCE
:100E40009FED600B53EC102B09F08FFF41EC1B0B57
:100E50009FED660B53EC102B09F015FF41EC1A0BBC
:100E60009FED640B53EC102B09F07FFF41EC190B45
:100E70009FED620B53EC102B09F005FF41EC180BB2
:100E80000AF056F8604908605749B1F9040009F0C2
:100E9000DBFF41EC1D0B9FED490B53EC102B09F0D0
:100EA000F2FE41EC1C0B9FED470B00E022E053ECFF
:100EB000102B09F05AFF41EC1B0B9FED4C0B53EC30
:100EC000102B09F0E0FE41EC1A0B9FED4A0B53EC9E
:100ED000102B09F04AFF41EC190B9FED480B53EC26
:100EE000102B09F0D0FE41EC180B0AF021F847490D
:100EF00008604FE12C480078042852D144482C491E
:100F00000A680260898881804248006809F0CCFF45
:100F100041EC190B3E49B1F9000009F095FF41EC95
:100F20001D0B9FED260B53EC102B09F0ACFE41EC92
:100F30001C0B9FED240B53EC102B09F016FF41EC1A
:100F40001B0B9FED2C0B53EC102B09F09CFE41EC7E
:100F50001A0B53EC192B09F090FE41EC180B09F019
:100F6000E7FF2D4908602B48006809F09DFF41EC20
:100F7000190B2749B1F9020009F066FF41EC1D0B7E
:100F80009FED0E0B53EC102B09F07DFE41EC1C0B7A
:100F90009FED0C0B53EC102B09F0E7FE41EC1B0B03
:100FA0003CE081E0004C0040400000203F00002079
:100FB0009C060020B8010020140000200000000062
:100FC0000000F03F000000000000E04000000000D2
:100FD000000030409A999999999923404402002041
:100FE000480200204C0200201C00002000000000ED
:100FF00000409F4000000000008066404AD8124D2B
:10100000FB21094050020020540200205802002019
:1010100024000020100000206C0200201FED0B0BAC
:1010200053EC102B09F02FFE41EC1A0B53EC192B4B
:1010300009F023FE41EC180B09F07AFFFB49086028
:10104000FB48006809F030FF41EC190BF949B1F990
:10105000040009F0F9FE41EC1D0B1FED280B53ECC9
:10106000102B09F010FE41EC1C0B1FED2A0B53EC6A
:10107000102B09F07AFE41EC1B0B1FED220B53ECF9
:10108000102B09F000FE41EC1A0B53EC192B09F060
:10109000F4FD41EC180B09F04BFFE74908600846E6
:1010A0000068E649086075E0E5480078052871D1D8
:1010B000E448E5490A680260496841600146B1F9BF
:1010C000000009F0C1FE41EC1A0B1FED440B53EC7C
:1010D000102B09F0D8FD41EC190B1FED460B53EC1A
:1010E000102B09F042FE41EC180B09F021FFD74903
:1010F0000860D449B1F9020009F0A6FE41EC1A0BD0
:101100001FED520B53EC102B09F0BDFD41EC190BF8
:101110001FED540B53EC102B09F027FE41EC180B7C
:1011200009F006FFCA490860C649B1F9040009F090
:101130008BFE41EC1A0B1FED5F0B53EC102B09F0EB
:10114000A2FD41EC190B1FED610B53EC102B09F0C4
:101150000CFE41EC180B09F0EBFEBE490860B949E2
:10116000B1F9060009F070FE41EC1A0B1FED6D0B92
:1011700053EC102B09F087FD41EC190B1FED6F0BA1
:1011800053EC102B09F0F1FD41EC180B09F0D0FEE7
:10119000B14908600020AA49087002E00020A8496F
:1011A0000870BDEC0C8B10BDAC49097889B980B9C9
:1011B000AB490978491CAA4A1170114609780C29D3
:1011C00076D100211170A74A11700121A34A117034
:1011D0006EE0A2490978012963D1A249097806295C
:1011E0005FDAA14A9F4B1B78D0549E4909780529A4
:1011F00051D111460978527841EA0221C1F30A011E
:101200009A4A116098494978C910974A927841EAF8
:101210004211C1F30A01954A5160934989788911B5
:10122000914AD27841EA82018F4A127941EA8221B9
:10123000C1F30A018D4A91608B49097949108A4AA4
:10124000527941EAC211C1F30A01884AD160864944
:10125000497909118908116183494979C1F301115B
:10126000516111460968A1F5806111601146496814
:10127000A1F58061516011468968A1F58061916096
:101280001146C968A1F58061D1600121784A1160D9
:101290000021724A117073490978491C714A117012
:1012A00006E000216D4A11706D4A11706D4A11708F
:1012B0007047F0B50346032116220F20002465E095
:1012C0009E5C6C4F27F81060082913DA3E4636F80A
:1012D00010608E4027F81060C1F10806F5B23E4656
:1012E00036F81070561E9E5D2E413E44614F27F821
:1012F00010603DE0082915D15E4E36F810608E4032
:101300005C4F27F810603E4636F81070561E9E5D02
:101310003E44584F27F81060561EF2B2A1F108065D
:10132000F1B225E0534E36F810608E40514F27F849
:101330001060A1F10806F5B23E4636F81070561E50
:101340009E5DAE403E444B4F27F81060561EF2B2F1
:10135000A1F10806F1B2C1F10806F5B23E4636F831
:101360001070561E9E5D2E413E44424F27F810607D
:10137000404E36F81060C6F30A063E4F27F810605C
:10138000461EF0B2561EF2B2CE1CF1B2012A97DC14
:10139000002409E0374E36F81460A6F57A76364F09
:1013A00047F82460661CF4B2102CF3DBF0BD33491F
:1013B0000978334A1278891A324A1170114609782D
:1013C000022910DD304909780F2909D12F49097800
:1013D000192905D12C49097E11B901212C4A117016
:1013E00000212A4A117029490A780978491C274B9B
:1013F00019702549885421490968214A11607047AC
:101400002449097829B9552803D10121214A1170AD
:101410005EE020490978012940D1AA283ED1022165
:101420001C4A117000211C4A117051E0700200200A
:101430001000002024000020740200201002002070
:10144000400000202C0000209C0600205C020020B0
:101450006002002064020020680200204300002097
:101460004200002041000020A6060020980700202E
:10147000AC010020B4050020FC0500200400002081
:101480004800002044000020DC050020450000202A
:101490003C0000204D0000204C000020FE4909784F
:1014A000022912D1FD490A780978491CFB4B1970B1
:1014B000FB498854194609780A2909DB0121F94AB0
:1014C00011700021F44A117002E00021F24A1170FB
:1014D0007047F549097829B9532803D10121F24A07
:1014E000117026E0F0490978012908D1492806D170
:1014F0000221ED4A11700021EC4A117019E0EA490D
:101500000978022912D1E9490A780978491CE74B80
:101510001970E7498854194609780E2909DB012119
:10152000E44A11700021E04A117002E00021DE4A15
:1015300011707047E049097829B9532803D1012176
:10154000DD4A11703EE0DC49097801290ED14928B5
:101550000CD10221D84A11700021D84A1170012102
:10156000D74A11700021D74A11702BE0D24909786F
:1015700001290DD14A280BD10321CF4A1170002136
:10158000CE4A1170CE4A11700121CE4A117019E075
:10159000C9490978022912D1C8490A780978491C31
:1015A000C64B1970C849885419460978142909DBB3
:1015B0000121C64A11700021BF4A117002E00021CA
:1015C000BD4A1170704700B587B00121102001F0AD
:1015D00027FE0121084601F0DFFD25208DF80800D7
:1015E00001208DF809008DF80A008DF80B0002A883
:1015F00000F0FBFA07220921B54801F012FC07228E
:101600000A21B34801F00DFC4FF400700090022055
:101610008DF804008DF8050000208DF806000120EB
:101620008DF807006946AA4801F070FB4FF480600E
:10163000009002208DF804008DF8050001208DF83F
:10164000060000208DF807006946A14801F05EFB06
:101650004FF4E13003900020ADF81000ADF8120017
:10166000ADF81400ADF818000C20ADF8160003A971
:10167000984802F0B5FD012240F22551954802F04C
:10168000EDFE0121934802F033FE0121480401F0F0
:10169000B6FD0121082001F07FFD26208DF808000D
:1016A00000208DF8090001208DF80A008DF80B004C
:1016B00002A800F09AFA07220521874801F0B1FB41
:1016C00007220621844801F0ACFB20200090022074
:1016D0008DF804008DF8050000208DF8060001202B
:1016E0008DF8070069467C4801F010FB402000900F
:1016F00002208DF804008DF8050001208DF8060009
:1017000000208DF807006946734801F0FFFA4FF496
:10171000E13003900020ADF81000ADF81200ADF8F4
:101720001400ADF818000C20ADF8160003A96B48A2
:1017300002F056FD012240F22551684802F08EFE6B
:101740000121664802F0D4FD0121880401F057FD13
:101750000121082001F020FD27208DF8080001203C
:101760008DF8090002208DF80A0001208DF80B0089
:1017700002A800F03AFA07220821574801F051FB6D
:1017800007220921544801F04CFB4FF4807000906F
:1017900002208DF804008DF8050000208DF8060069
:1017A00001208DF8070069464B4801F0AFFA4FF46D
:1017B0000070009002208DF804008DF805000120D3
:1017C0008DF8060000208DF807006946424801F0B8
:1017D0009DFA4FF4E13003900020ADF810004FF473
:1017E0000050ADF812000020ADF81400ADF818005C
:1017F0000C20ADF8160003A9394802F0F1FC0122D3
:1018000040F22551364802F029FE0121344802F009
:101810006FFD0121C80401F0F2FC0121042001F058
:10182000BBFC34208DF8080002208DF8090001204F
:101830008DF80A008DF80B0002A800F0D6F90822F6
:101840000A21284801F0EDFA08220B21254801F071
:10185000E8FA4FF48060009002208DF804008DF8C3
:10186000050000208DF8060001208DF8070069466C
:101870001C4801F04BFA4FF40060009002208DF8F4
:1018800004008DF8050001208DF8060000208DF879
:1018900007006946134827E04D0000204C00002057
:1018A0004C0600203D0000204F0000204E0000208C
:1018B000740600203E00002051000020500000204F
:1018C000B9020020BA020020BC080020B8020020A3
:1018D0000000024000100140000C024000440040A3
:1018E000004800400008024001F010FA4FF4E130D7
:1018F00003900020ADF81000ADF81200ADF8140010
:10190000ADF818000C20ADF8160003A99C4802F0B1
:1019100067FC012240F22551994802F09FFD012108
:10192000974802F0E5FC0121080501F068FC01215F
:10193000042001F031FC0121082001F02DFC3520AC
:101940008DF8080002208DF809008DF80A000120AA
:101950008DF80B0002A800F048F908220C218948F4
:1019600001F05FFA08220221874801F05AFA4FF489
:101970008050009002208DF804008DF805000020B2
:101980008DF8060001208DF8070069467D4801F0BA
:10199000BDF90420009002208DF804008DF80500A8
:1019A00001208DF8060000208DF807006946764872
:1019B00001F0ACF9754803900020ADF81000ADF8C7
:1019C0001200ADF81400ADF818000C20ADF81600A8
:1019D00003A96F4802F004FC012240F225516C4833
:1019E00002F03CFD01216A4802F082FC0121202026
:1019F00001F016FC0121042001F0CEFB47208DF8F8
:101A0000080002208DF809008DF80A0001208DF8E9
:101A10000B0002A800F0E9F808220621594801F05D
:101A200000FA08220721574801F0FBF940200090F6
:101A300002208DF804008DF8050000208DF80600C6
:101A400001208DF8070069464E4801F05FF98020BB
:101A5000009002208DF804008DF8050001208DF81B
:101A6000060000208DF807006946464801F04EF94F
:101A70004FF4E13003900020ADF81000ADF81200F3
:101A8000ADF81400ADF818000C20ADF8160003A94D
:101A9000404802F0A5FB012240F225513D4802F0EA
:101AA000DDFC01213B4802F023FC07B000BD10B56E
:101AB00040F22551384802F00CFD58B140F2255152
:101AC000354802F03DFD344802F041FCC4B22046E6
:101AD000FFF796FC10BD10B5002440F225512F48A9
:101AE00002F0F7FC58B140F225512C4802F028FDD5
:101AF0002A48001D0088C4B22046FFF772F810BDC6
:101B000010B540F22551264802F0E3FC20B140F226
:101B10002551234802F014FD10BD10B540F22551A7
:101B2000174802F0D6FC58B140F22551144802F093
:101B300007FD134802F00BFCC4B22046FFF7FAFC85
:101B400010BD10B540F22551114802F0C2FC40B161
:101B500040F225510E4802F0F3FC0D4802F0F7FB6D
:101B6000C4B210BD10B540F225510A4802F0B1FCD4
:101B700020B140F22551074802F0E2FC10BD000000
:101B8000004C004000080240000C0240A08601000A
:101B9000005000400014014000100140004400408B
:101BA000004800400648804706480047FEE7FEE739
:101BB000FEE7FEE7FEE7FEE7FEE7FEE7FEE7FEE7FD
:101BC0003D46000889010008704700BFFEE700BFDE
:101BD000FEE700BFFEE700BFFEE7704770477047B3
:101BE00032490143324A1160704770B50021002329
:101BF0000F22C4781CB32E4C246804F4E064C4F5AE
:101C0000E064C4F30721C1F10404E3B20A4144785B
:101C10009C40E1B28478144021430C07210E254CEE
:101C200005786155047804F01F050124AC4005785F
:101C30006D11AD0005F1E025C5F8004109E004781B
:101C400004F01F050124AC401B4D0678761145F8C1
:101C5000264070BD194A0A400243154B1B1F1A60EB
:101C6000704739B1124A121D12680243104B1B1DF6
:101C70001A6006E00E4A121D126882430C4B1B1DAF
:101C80001A607047042808D14FF0E021096941F03B
:101C900004014FF0E022116107E04FF0E0210969F3
:101CA00021F004014FF0E022116170470000FA05B5
:101CB0000CED00E000E400E080E100E080FFFF1FA9
:101CC00010B50121080201F013FB00214FF48070D0
:101CD00001F00EFB10BD30B5024600200023506815
:101CE000F84C20400D790C6844EA052420435060EC
:101CF0009068F54C2040D1E903542C438D682C4367
:101D00004D7944EA450420439060D06A20F4700085
:101D10000C7D641EE4B2234340EA0350D06230BD20
:101D200000210160017141718160C1600161012187
:101D3000017570470021E54A1168E54A1140D0E974
:101D400000231A4383681A43C3681A431143E14AC4
:101D5000C2F8041370470021016041608160C160D6
:101D6000704721B1826842F00102826003E082681C
:101D700022F00102826070470A4600214168D64B7A
:101D800019401143416070474162826270470A46C0
:101D90000021416821F01F0111434160704738B1B3
:101DA000CA49096841F40001CA4AC2F8041306E0AE
:101DB000C649096821F40001C64AC2F804137047F5
:101DC00038B1C249096841F48001C24AC2F804131B
:101DD00006E0BE49096821F48001BE4AC2F8041336
:101DE0007047F0B504460D4600200021092D11DD95
:101DF000E068A5F10A0606EB4607072606FA07F192
:101E00008843A5F10A0606EB460603FA06F10843E5
:101E1000E0600CE0206905EB4507072606FA07F1AC
:101E2000884305EB450603FA06F108432061072ABB
:101E30000FDA606B561E06EB86071F2606FA07F1BF
:101E40008843561E06EB860605FA06F108436063D2
:101E500022E00D2A0FDA206BD61F06EB86071F261D
:101E600006FA07F18843D61F06EB860605FA06F147
:101E70000843206310E0E06AA2F10D0606EB860736
:101E80001F2606FA07F18843A2F10D0606EB860627
:101E900005FA06F10843E062F0BD816841F0804137
:101EA00081607047014600208A6802F480020AB10E
:101EB000012000E00020704721B1826842F4806276
:101EC000826003E0826822F480628260704721B100
:101ED000826842F00202826003E0826822F002021D
:101EE0008260704710B50A4600210023416821F442
:101EF0006041531E41EA4331416010BD21B1426847
:101F000042F40062426003E0426822F400624260F0
:101F100070470146C86C80B270476C48001D00686D
:101F2000704721B1826842F48072826003E0826867
:101F300022F480728260704721B1826842F400729C
:101F4000826003E0826822F400728260704738B1D8
:101F50005E49096841F400515E4AC2F8041306E084
:101F60005A49096821F400515A4AC2F804137047CB
:101F7000F0B504461546002000220026092911DD8F
:101F8000E068A1F10A0707EB470C072707FA0CF2F4
:101F90009043A1F10A0707EB470703FA07F2104342
:101FA000E0600CE0206901EB410C072707FA0CF216
:101FB000904301EB410703FA07F210432061A06B45
:101FC000C0F30156EF1C06F1010CA7EB0C0707EB61
:101FD000870C1F2707FA0CF29043EF1C06F1010C47
:101FE000A7EB0C0707EB870701FA07F21043A06382
:101FF000F0BD10B50A4600210023816B21F4401189
:10200000531E41EA0351816310BD08B500230093BC
:102010000090009B0B440093009B1A6008BD0A4689
:102020000021816821F470211143816070470A46C4
:102030000021816821F4401111438160704781685B
:1020400041F4800181607047014600208A6802F4F3
:1020500080020AB1012000E00020704721B14268EF
:1020600042F48062426003E0426822F4806242608F
:10207000704721B1426842F48052426003E04268F6
:1020800022F480524260704708B50246002000905A
:10209000009201F12800009B18440090009800680D
:1020A00080B208BD10B50B460021D9B2012404FA54
:1020B00001F11AB144680C43446002E044688C4367
:1020C000446010BDFFFEFFFCFDF7FFC0042301408C
:1020D000E030FCFF00200140FFFD3FFF02460020F2
:1020E00013680B400BB1012000E000207047CA4389
:1020F0000260704770B502460020002300240B12D6
:10210000556801268E4005EA060415681D4015B184
:102110000CB1012000E0002070BD00220A12D34360
:102120000360704710B50446FE48844209D101217E
:10213000480601F0CCF800214FF0007001F0C7F81C
:1021400008E00121880601F0C2F800214FF080600C
:1021500001F0BDF810BD30B5024600200023146820
:1021600024F002041460146844F00104146000E0D8
:102170005B1C546804F001041CB94FF6FF74A342C1
:10218000F6D1546804F001040CB900206CE08C799D
:10219000012C04D1146844F08004146003E0146836
:1021A00024F080041460CC79012C04D1146844F02C
:1021B0004004146003E0146824F0400414600C7AB6
:1021C000012C04D1146844F02004146003E0146866
:1021D00024F0200414604C7A012C04D1146844F0DB
:1021E0001004146003E0146824F0100414608C7A66
:1021F000012C04D1146844F00804146003E014684E
:1022000024F008041460CC7A012C04D1146844F042
:102210000404146003E0146824F0040414608C784F
:10222000A407CD7844EA05640D7944EA05444D7964
:1022300044EA05540D886D1E2C43D461146824F0C3
:1022400001041460002300E05B1C546804F00104E6
:102250001CB14FF6FF74A342F6D1546804F0010498
:102260000CB1002000E0012030BD10B50021837AC0
:10227000012202FA03F1AC4A126842F00102AA4BB1
:102280001A60A94A1C3212688A43A74B1C331A6091
:10229000027BCAB9A44A0C3212688A43A24B0C339F
:1022A0001A604288C38842EA03439F4A4032847AD4
:1022B00042F834300288838842EA03439A4A403223
:1022C000847A02EBC4025360027B012A19D1964A38
:1022D0000C3212680A43944B0C331A60428803880C
:1022E00042EA0343904A4032847A42F83430C2884A
:1022F000838842EA03438C4A4032847A02EBC40268
:102300005360C27A3AB9884A121D12688A43864BD2
:102310001B1D1A6006E0844A121D12680A43824B94
:102320001B1D1A60028932B97F4A143212688A432F
:102330007D4B14331A600289012A06D17A4A14327D
:1023400012680A43784B14331A60427B012A06D183
:10235000754A1C3212680A43734B1C331A60724A66
:10236000126822F00102704B1A6010BD00218171C9
:10237000C171017241728172C1728170C170032199
:10238000017102214171012101807047664909688C
:1023900041F00101644A11601146096843F60E726A
:1023A0009143614A11601146096841EA00211160B8
:1023B0001146096821F001011160704721B10268DE
:1023C00042F48032026003E0026822F4803202604C
:1023D0007047E1B1026842F0800202604FF4C272BD
:1023E000125842F480734FF4C27213504FF4CA7201
:1023F000125842F480734FF4CA7213504FF4D272E1
:10240000125842F480734FF4D27213501BE00268EA
:1024100022F0800202604FF4C272125822F48073DC
:102420004FF4C27213504FF4CA72125822F48073E0
:102430004FF4CA7213504FF4D272125822F48073C0
:102440004FF4D2721350704710B5024600209368C3
:1024500003F08063B3F1806F00D110E0936803F064
:102460000063B3F1006F01D1012008E0936803F02D
:102470008053B3F1805F01D1022000E004200428E2
:1024800079D002F5C07303EB00131B6803F001045D
:1024900002F5C07303EB00131C600B7A7BB94B7A17
:1024A0000C8843EA445302F5C07404EB001424681A
:1024B000234302F5C07404EB0014236010E00B7A90
:1024C0004C6843EAC4034C7A234302F5C07404EB1E
:1024D00000142468234302F5C07404EB0014236045
:1024E0008B7A03F00F038B7202F5C07303EB0013BA
:1024F0005B6823F00F0402F5C07303EB00135C600C
:1025000002F5C07303EB00135B688C7A234302F57A
:10251000C07404EB001463608B7B1C064B7B44EAA5
:10252000034403E000640040006600400B7B44EA83
:102530000323CC7A234302F5C07404EB0014A36098
:102540008B7C1C064B7C44EA03440B7C44EA03234B
:10255000CC7B234302F5C07404EB0014E36002F566
:10256000C07303EB00131B6843F0010402F5C07352
:1025700003EB00131C6010BD10B50246002321B10F
:10258000012907D002290FD109E09068F94C00EA2F
:1025900004030BE09068F84C00EA040306E090683E
:1025A000F64C00EA040301E0002300BF00BFF44C36
:1025B000181BA34216D007DC83B16FF0806018446B
:1025C00070B1022818D111E0B0F5007F10D0ED4CA9
:1025D000204448B1B0F5003F0ED10BE002230DE0DE
:1025E00000230BE0002309E0002307E0012305E0BE
:1025F000012303E0012301E0002300BF00BFD8B2A4
:1026000010BD21B1012907D002290FD109E082684C
:1026100042F0800282600AE0826842F400428260F6
:1026200005E0826842F40002826000E000BF00BF63
:10263000704710B500F5D87303EB01131B6803F066
:1026400004031372137A53B900F5D87303EB011323
:102650001B6840F2FF7404EA5353136009E000F56D
:10266000D87303EB01131B686FF0604404EAD303D3
:10267000536000F5D87303EB01131B6803F00203EA
:10268000537200F5D87303EB01135B6803F00F037B
:10269000937200F5D87303EB01135B681B0AD374C4
:1026A00000F5D87303EB01139B68D37200F5D87360
:1026B00003EB01139B681C0A147300F5D87303EB3A
:1026C00001139B681C0C547300F5D87303EB0113C2
:1026D0009B681B0E937300F5D87303EB0113DB6843
:1026E000D37300F5D87303EB0113DB681C0A147471
:1026F00000F5D87303EB0113DB681C0C547400F570
:10270000D87303EB0113DB681B0E937421B9C36804
:1027100043F02003C36003E0036943F02003036137
:1027200010BD21B9C26842F02002C26003E0026914
:1027300042F02002026170470246002019B9D368B6
:1027400003F0030006E0012903D1136903F003003D
:1027500000E00020704710B502460B4600204FF6FF
:10276000FF71BBB9146824F0020444F00104146042
:1027700000E0491E546804F00304012C01D0002934
:10278000F7D1546804F00304012C01D0002032E09A
:10279000012030E0012B13D1146824F003041460ED
:1027A00000E0491E546804F003040CB10029F8D17C
:1027B000546804F003040CB100201CE001201AE06E
:1027C000022B17D1146824F0010444F002041460B1
:1027D00000E0491E546804F00304022C01D00029D3
:1027E000F7D1546804F00304022C01D0002002E069
:1027F000012000E0002010BD014600200A6822F000
:10280000010242F002020A604A6802F00302022A50
:1028100000D10120704701464FF6FF7200200B687F
:1028200023F002030B6000E0521E4B6803F002032A
:10283000022B01D1002AF7D14B6803F00203022BCF
:1028400000D001207047014600208A6902F0700024
:102850007047014600208A69100E7047014600202B
:102860008A69C2F3074070471AB143690B43436159
:1028700002E043698B434361704710B50246002074
:1028800001F4700343B19369C1F3130423400BB106
:1028900001202DE000202BE001F0807343B153684C
:1028A000C1F3130423400BB1012021E000201FE0FD
:1028B00001F0006343B19368C1F3130423400BB1EB
:1028C000012015E0002013E001F0007343B1D3684C
:1028D000C1F3130423400BB1012009E0002007E0FD
:1028E0001369C1F3130423400BB1012000E0002061
:1028F00010BD0022244B994202D10023836111E0D4
:10290000C1F3130201F000730BB1C2600AE001F0E1
:1029100080630BB1026105E001F000630BB18260DE
:1029200000E0426070470246002002EA01030BB15A
:10293000012000E00020704770B504460D460026D7
:1029400060692840002872D0B5F5807F69D01DDC11
:10295000082D42D006DC012D2DD0022D31D0042DC2
:102960007FD134E0102D3ED0202D42D0402D78D1A3
:1029700045E000000300000400030008000003100D
:10298000000100080001FFF77000F030B5F5004FBE
:1029900061D009DCB5F5007F4AD0B5F5806F4DD028
:1029A000B5F5006F5DD150E0B5F5803F2DD0B5F5A0
:1029B000003F56D12FE0A0685549FFF7B4FF064607
:1029C00051E0E0680321FFF7AEFF06464BE0E06808
:1029D0000821FFF7A8FF064645E0E0681021FFF751
:1029E000A2FF06463FE020690321FFF79CFF064651
:1029F00039E020690821FFF796FF064633E0206999
:102A00001021FFF790FF06462DE060680821FFF7D0
:102A10008AFF064627E060681021FFF784FF06461C
:102A200021E0A0690121FFF77EFF06461BE01BE0C5
:102A3000A0690221FFF777FF064614E0A069042190
:102A4000FFF771FF06460EE00BE0A0697021FFF76B
:102A50006AFF064607E060680421FFF764FF064648
:102A600001E0002600BF00E00026304670BDB1F551
:102A7000007F3AD00FDC202928D006DC01291CD0A9
:102A800004291DD0082940D11DE0402921D0B1F5ED
:102A9000807F3AD126E0B1F5004F31D006DCB1F5A8
:102AA000806F25D0B1F5006F2FD124E0B1F5803FC4
:102AB00012D0B1F5003F28D111E0154A826025E01F
:102AC0000822C26022E01022C2601FE008220261D8
:102AD0001CE01022026119E00822426016E0102278
:102AE000426013E00422426010E0042242600DE0E4
:102AF000042242600AE0002282610422426005E072
:102B0000002282610422426000E000BF00BF7047E3
:102B100001010100002044490860091D0860091DE9
:102B20000860091D086041483F491431086070473A
:102B300000213D498279002A3AD00A46126803688A
:102B40009A430B461A600A1D126803689A430B1DCC
:102B50001A60027911440A6803681A430A60324A0B
:102B60000832126803689A432F4B08331A601A1D03
:102B7000126803689A432C4B0C331A604279102A6E
:102B80000ED11A1F126803681A43274B08331A60C4
:102B90001A1D126803681A43234B0C331A600DE0A8
:102BA0002149427911440A6803681A430A6005E022
:102BB000027911440A6803689A430A607047002149
:102BC000016001710C21417100218171704716492A
:102BD000103109680143144A1032116070470146F0
:102BE0000020114A143212680A400AB1012000E0A4
:102BF000002070470C4914310860704701460020DE
:102C00000022094B1B6803EA0102074B14331B68BF
:102C10000B4013B10AB1012000E0002070470249C7
:102C20001431086070470000003C0140FFFF7F0046
:102C300010B504468C48844208D10121084600F0B2
:102C400000FB0021012000F0FCFA5EE0874884428E
:102C500008D10121022000F0F4FA0021022000F046
:102C6000F0FA52E08248844208D10121042000F0A9
:102C7000E8FA0021042000F0E4FA46E07D488442AE
:102C800008D10121082000F0DCFA0021082000F022
:102C9000D8FA3AE07848844208D10121102000F0A7
:102CA000D0FA0021102000F0CCFA2EE073488442C4
:102CB00008D10121202000F0C4FA0021202000F0DA
:102CC000C0FA22E06E48844208D10121402000F081
:102CD000B8FA0021402000F0B4FA16E069488442B6
:102CE00008D10121802000F0ACFA0021802000F002
:102CF000A8FA0AE06448844207D10121801500F057
:102D0000A0FA0021A01500F09CFA10BDF0B50A460B
:102D100000210023002400BF3DE0012505FA01F356
:102D2000156805EA03049C4234D105684F00032668
:102D3000BE40B543056015794E00B5400668354381
:102D400005601579012D02D01579022D16D18568FF
:102D50004F000326BE40B543856055794E00B5400F
:102D6000866835438560456801268E40B5434560D9
:102D7000456896798E40B6B235434560C5684F00C8
:102D80000326BE40B543C560D5794E00B540C66840
:102D90003543C560491C1029BFD3F0BD4FF6FF7104
:102DA00001600021017141718171C171704708B5E5
:102DB0004FF480320092009A0A430092009AC26156
:102DC000C161009AC261C2690092C269009208BDE5
:102DD0000246002013690B400BB1012000E00020E7
:102DE00070470146086980B2704702460020536967
:102DF0000B400BB1012000E00020704701464869FC
:102E000080B2704701837047418370470AB10183E4
:102E100000E0418370474161704742694A40426126
:102E20007047F0B5002300244D07ED0E02FA05F3BC
:102E3000CE1000F1200555F826504E07F70E0F264C
:102E4000BE40B543CF1000F1200646F82750CE1003
:102E500000F1200555F8265045EA0304CE1000F194
:102E6000200545F82640F0BD000002400004024065
:102E700000080240000C0240001002400014024012
:102E800000180240001C024000200240FA4800687E
:102E900040F00100F84908600020F7490831086057
:102EA000F5480068F5490840F3490860F448091DF1
:102EB0000860081F006820F48020091F08600020B7
:102EC000ED490C31086070470021EB4A921C1170EB
:102ED00011460870704710B50146002200230020FB
:102EE0004A11012A02D1E44C236808E0022A03D1E6
:102EF000E14C7034236802E0DF4C7434236801F045
:102F00001F02012494401C400CB1012000E000206D
:102F100010BD38B5002000900024002500BF3120EE
:102F2000FFF7D9FF05460098401C00900098B0F5C7
:102F3000A06F01D0002DF2D03120FFF7CCFF08B1F7
:102F4000012400E00024204638BD01460020CA4A82
:102F5000106820F0F80040EAC10010607047C949CD
:102F6000086070470021C44A703211701170012846
:102F700002D004280AD104E00121BF4A7032117046
:102F800005E00521BC4A7032117000E000BF00BFAF
:102F90007047BD490860704770B5049C41EA8215CE
:102FA0000126C6EB530645EA0645054345EA046596
:102FB000B14E361D356070BDB2490866704782015A
:102FC00042EA0172AC4B84331A607047AD4988669F
:102FD0007047AC49C864704702460020A64B0833CE
:102FE000186820F0EC6042EA01031843A24B083352
:102FF00018607047024600209F4B0833186820F085
:10300000784042EA010318439B4B0833186070472D
:1030100001460020984A0832106820F00300084357
:103020001060704794480830006800F00C0070474A
:1030300001460020904A0832106820F0F000084352
:1030400010607047014600208B4A0832106820F457
:10305000E05008431060704701460020864A08325D
:10306000106820F4604040EAC10010607047F0B57D
:103070000021002200240225002602237E4F08376B
:103080003F6807F00C0121B1042905D0082937D188
:1030900005E07E4F076036E07D4F076033E0764FF6
:1030A0003F1D3F68C7F38056734F3F1D3F6807F0D1
:1030B0003F036EB1764FB7FBF3F7DFF8BCC10CF1FD
:1030C000040CDCF800C0CCF3881C07FB0CF40CE00B
:1030D0006E4FB7FBF3F7DFF8A0C10CF1040CDCF87E
:1030E00000C0CCF3881C07FB0CF4634F3F1D3F6806
:1030F000C7F301477F1C7D00B4FBF5F7076002E0D2
:10310000624F076000BF00BF5B4F08373F6807F0A2
:10311000F00109095F4F7A5C0768D7404760564F56
:1031200008373F6807F4E051890A5A4F7A5C4768CC
:10313000D7408760504F08373F6807F46041490B1C
:10314000544F7A5C4768D740C760F0BD002100F457
:103150004072B2F5407F0AD1474A0832116821F423
:10316000F8114D4A02401143434A08321160424A65
:1031700070321268C0F30B031A433F4B70331A606E
:10318000704741494439086070473F4940390860F9
:10319000704742490860704739B1374A3032126887
:1031A0000243354B30331A6006E0334A303212683E
:1031B0008243314B30331A60704739B12E4A343272
:1031C000126802432C4B34331A6006E02A4A343228
:1031D00012688243284B34331A60704739B1264A4B
:1031E000383212680243244B38331A6006E0224A10
:1031F000383212688243204B38331A60704739B135
:103200001D4A4032126802431B4B40331A6006E0ED
:10321000194A403212688243174B40331A60704794
:1032200039B1154A443212680243134B44331A60D1
:1032300006E0114A4432126882430F4B44331A604D
:10324000704739B10C4A1032126802430A4B1033EE
:103250001A6006E0084A103212688243064B1033A7
:103260001A607047E1B1044A143212680243024BFB
:1032700014331A6019E0000000380240FFFFF6FE28
:103280001030002400004742800E47420024F40022
:1032900000127A0052000020FFFCFF0F5C01474241
:1032A0005B4A126882435A4B1A60704739B1584AD8
:1032B000121D12680243564B1B1D1A6006E0544A49
:1032C000121D12688243524B1B1D1A60704739B1A0
:1032D0004F4A0C32126802434D4B0C331A6006E021
:1032E0004B4A0C3212688243494B0C331A607047C8
:1032F00039B1474A103212680243454B10331A6005
:1033000006E0434A103212688243414B10331A6080
:10331000704739B13E4A3C32126802433C4B3C3361
:103320001A6006E03A4A3C3212688243384B3C331A
:103330001A60704739B1364A403212680243344B42
:1033400040331A6006E0324A403212688243304B02
:1033500040331A60704739B12D4A44321268024333
:103360002B4B44331A6006E0294A443212688243E8
:10337000274B44331A60704739B1254A4C321268E2
:103380000243234B4C331A6006E0214A4C32126848
:1033900082431F4B4C331A60704739B11C4A50327C
:1033A000126802431A4B50331A6006E0184A503232
:1033B00012688243164B50331A60704739B1144A71
:1033C000D21F12780243124BDB1F1A7006E0104A1C
:1033D000D21F127882430E4BDB1F1A7070470C48C5
:1033E0006030006840F080700949603108607047C3
:1033F00001460020064A083A12680A400AB1012034
:1034000000E0002070470249891F087070470000E3
:103410001438024010B501218803FFF769FF00212D
:103420004FF48040FFF764FF10BD1A4908607047F1
:1034300030B500228B071C0F0F2303FA04F2154B43
:1034400008338C1053F824309343124C08348D10F9
:1034500044F8253023468C1053F824308C07240F71
:1034600000FA04F423430B4C08348D1044F8253043
:1034700030BD09490860704708490860704700205E
:1034800004492031096801F4807109B1012000E08C
:103490000020704700380140DC002742000427422A
:1034A00010B50446FE48844208D101210846FFF7C2
:1034B0001FFF00210120FFF71BFF9DE0B4F1804FAB
:1034C00008D101210846FFF702FF00210120FFF784
:1034D000FEFE91E0F348844208D101210220FFF76B
:1034E000F6FE00210220FFF7F2FE85E0EE4884425E
:1034F00008D101210420FFF7EAFE00210420FFF794
:10350000E6FE79E0E948844208D101210820FFF76E
:10351000DEFE00210820FFF7DAFE6DE0E448844279
:1035200008D101211020FFF7D2FE00211020FFF763
:10353000CEFE61E0DF48844208D101212020FFF760
:10354000C6FE00212020FFF7C2FE55E0DA48844283
:1035500008D101210220FFF7CBFE00210220FFF756
:10356000C7FE49E0D548844209D101210804FFF78C
:10357000BFFE00214FF48030FFF7BAFE3CE0D04898
:10358000844209D101214804FFF7B2FE00214FF423
:103590000030FFF7ADFE2FE0CA48844209D1012177
:1035A0008804FFF7A5FE00214FF48020FFF7A0FE5E
:1035B00022E0C548844208D101214020FFF787FE60
:1035C00000214020FFF783FE16E0C048844208D166
:1035D00001218020FFF77BFE00218020FFF777FE8E
:1035E0000AE0BB48844207D101218015FFF76FFE36
:1035F0000021A015FFF76BFE10BD00220288A84B2A
:1036000098420ED0AC4B98420BD0B0F1804F08D00E
:10361000A44B984205D0A44B984202D0A34B9842A9
:1036200004D14FF68F731A404B881A43A04B98422F
:1036300007D0A04B984204D04FF6FF431A400B89A5
:103640001A4302804B68C3620B880385944B9842EF
:1036500002D0994B984201D18B7A03860123838251
:1036600070474FF0FF3141600021018001814180AE
:10367000817270470185828270470A460021018865
:103680004FF68F73194011430180704741627047B4
:10369000C16270470146486A70470146088D70470D
:1036A00021B1028842F00202028004E002884FF653
:1036B000FD731A400280704721B1028842F0040273
:1036C000028004E002884FF6FB731A4002807047C4
:1036D00021B1028842F08002028004E002884FF6A5
:1036E0007F731A400280704702884FF6F7731A40C2
:1036F000028002880A430280704702884FF6FF4327
:103700001A40028002880A430280704721B1028871
:1037100042F00102028004E002884FF6FE731A4074
:103720000280704770B5002400220023058C4FF6FC
:10373000FE7635400584028C8388048B4FF68F75A6
:103740002C40B51E2C400D882C43751E2A408D89B7
:103750002A434D882A43524DA84202D0564DA842D2
:1037600013D14FF6F7752A40CD892A434FF6FB75E2
:103770002A408D882A434FF6FF652B404FF6FF55B0
:103780002B400D8A2B434D8A2B43838004838D6805
:103790004563028470BD70B5002400220023058CAF
:1037A0004FF6EF7635400584028C8388048B48F60B
:1037B000FF752C404FF6FF452C400D884FF6FF76E5
:1037C00006EA05252C434FF6DF752A408D8906EA67
:1037D00005152A434D8806EA05152A43304DA842AF
:1037E00002D0354DA8421DD14FF67F752A40CD89B4
:1037F0004FF6FF7606EA05152A434FF6BF752A40B5
:103800008D8806EA05152A434FF6FF352B404FF207
:10381000FF752B400D8A06EA85052B434D8A06EA83
:1038200085052B43838004838D688563028470BD86
:1038300070B5002400220023058C4FF6FF6635404A
:103840000584028C8388848B4FF68F752C404FF64D
:10385000FC752C400D882C434FF6FF552A408D896E
:103860004FF6FF7606EA05252A434D8806EA052528
:103870002A430B4DA84202D00F4DA84238D14FF237
:10388000FF752A40CD894FF6FF7606EA05252A43C3
:103890004FF6FF352A408D8806EA05252A4319E0B0
:1038A000000001400004004000080040000C0040FF
:1038B000001000400014004000040140004001409E
:1038C000004401400048014000180040001C004036
:1038D000002000404EF6FF752B404DF6FF752B4043
:1038E0000D8A06EA05152B434D8A06EA05152B437A
:1038F000838084838D68C563028470BD70B50022A7
:1039000000230024058C4EF6FF7635400584038C99
:103910008488828B48F6FF752A404FF6FF452A407F
:103920000D884FF6FF7606EA05252A434DF6FF750A
:103930002B408D8906EA05352B434D8806EA05356F
:103940002B43FE4DA84202D0FD4DA84208D14BF6B4
:10395000FF752C400D8A4FF6FF7606EA85152C433D
:10396000848082838D680564038470BD002101809A
:103970004180818081608181C18101824182704763
:1039800070B50346002000241846183001258D40EC
:10399000ACB21D8CA5431D8409B108290AD100EBE6
:1039A000610005684FF68F76354005600568154360
:1039B00005600FE00D1FC5F34E052844056848F665
:1039C000FF763540056005684FF6FF7606EA022669
:1039D0003543056070BD4163704781637047C163C3
:1039E0007047016470470A460021018B4FF68F73C0
:1039F00019401143018370470A460021018B48F6A4
:103A0000FF7319404FF6FF7303EA02231943018342
:103A100070470A460021818B4FF68F73194011437E
:103A2000818370470A460021818B48F6FF73194055
:103A30004FF6FF7303EA02231943818370470A4656
:103A40000021018B4FF6F773194011430183704732
:103A50000A460021018B4FF2FF7319404FF6FF73A6
:103A600003EA02231943018370470A460021818B30
:103A70004FF6F77319401143818370470A460021BE
:103A8000818B4FF2FF7319404FF6FF7303EA022355
:103A90001943818370470A460021018B4FF6FB735F
:103AA00019401143018370470A460021018B4FF6EC
:103AB000FF3319404FF6FF7303EA022319430183D2
:103AC00070470A460021818B4FF6FB731940114362
:103AD000818370470A460021818B4FF6FF331940DE
:103AE0004FF6FF7303EA02231943818370470A46A6
:103AF0000021018B4FF67F731940114301837047FA
:103B00000A460021018BC1F30E014FF6FF7303EA51
:103B100002231943018370470A460021818B4FF627
:103B20007F7319401143818370470A460021818BBE
:103B3000C1F30E014FF6FF7303EA02231943818399
:103B400070470A460021018C4FF6FD73194011435E
:103B5000018470470A460021018C4FF6F773194023
:103B60001143018470470A460021018C4FF6DF7330
:103B700019404FF6FF7303EA02131943018470479B
:103B80000A460021018C4FF67F7319404FF6FF73F0
:103B900003EA02131943018470470A460021018C8D
:103BA0004FF6FF5319404FF6FF7303EA0223194300
:103BB000018470470A460021018C4FF2FF731940BF
:103BC0004FF6FF7303EA02231943018470470A4644
:103BD0000021018C4DF6FF7319404FF6FF7303EA85
:103BE000023319430184704730B5002301248C400F
:103BF000A3B2048C9C430484048C02FA01F5ADB298
:103C00002C43048430BD30B5002304248C40A3B27F
:103C1000048C9C430484048C02FA01F5ADB22C435D
:103C2000048430BD828B4FF2FF331A408283828B33
:103C30004FF6FF7303EA01231A4382837047F0B5FE
:103C40000C461546002100220026078C4EF6FF7C0C
:103C500007EA0C070784818B028C4FF6FF7707EA8F
:103C6000043640F6FF4739404FF6FF7707EA05274D
:103C700039434FF6FF7707EA0337394345F6FF77B5
:103C80003A4046F480573A4381830284F0BD828BE8
:103C90004FF6F3731A408283828B0A438283704704
:103CA000F0B50C461546002100220026078C4FF681
:103CB000FF6C07EA0C070784818B028C4FF6FF77B5
:103CC00007EA04264FF60C7739404FF6FF7707EAEC
:103CD00003172F4339434FF2FF573A4046F480779A
:103CE0003A4381830284F0BD028B4FF2FF331A40C6
:103CF0000283028B4FF6FF7303EA01231A43028308
:103D00007047F0B50C461546002100220026078CAE
:103D10004FF6EF7C07EA0C070784018B028C4FF605
:103D2000FF7707EA041640F6FF4739404FF6FF7762
:103D300007EA033739434FF6FF7703E000000140FD
:103D40000004014007EA052739434FF65F773A4000
:103D500046F010073A4301830284F0BD028B4FF610
:103D6000F3731A400283028B0A4302837047F0B553
:103D70000C46154600210022068C4FF6FE773E4089
:103D80000684018B028C4FF60C7631407E1C06EACD
:103D900003162E4331434FF6F576324044F00106C8
:103DA000324301830284F0BD70B505460C4620887D
:103DB00050B92389A28861882846FFF7D8FFE18897
:103DC0002846FFF7CBFF25E0208804280AD1238965
:103DD000A28861882846FFF794FFE1882846FFF70C
:103DE00083FF17E0208808280AD12389A2886188E8
:103DF0002846FFF755FFE1882846FFF748FF09E00E
:103E00002389A28861882846FFF719FFE1882846A0
:103E1000FFF708FF70BD00210180418001218180F2
:103E20000021C180018170472DE9F04105460C4613
:103E300000260127608808B9022600E00026A08835
:103E4000012801D1022700E001272088A0B9238999
:103E5000A28861882846FFF78AFFE1882846FFF795
:103E60007DFF23893A4631462846FFF74AFFE1881D
:103E70002846FFF739FF13E02389A2886188284686
:103E8000FFF73FFFE1882846FFF72EFF23893A46D8
:103E900031462846FFF76BFFE1882846FFF75EFFB3
:103EA000BDE8F0810146486B70470146886B70475A
:103EB0000146C86B70470146086C70470A884B88FA
:103EC0001A438B881A43CB881A430B891A434B89B0
:103ED0001A438B891A43A0F84420704700210180BF
:103EE00041808180C180018141818181704731B1F0
:103EF000B0F8442042F40042A0F8442005E0B0F8B5
:103F00004420C2F30E02A0F84420704721B18288F9
:103F100042F00402828004E082884FF6FB731A406C
:103F20008280704721B1828842F00102828004E0E1
:103F300082884FF6FE731A40828070471AB18389D7
:103F40000B43838102E083898B43838170478182A5
:103F5000704702460020138A0B400BB1012000E09D
:103F600000207047CA430282704730B502460020E5
:103F700000230024158A05EA0103958905EA010456
:103F800013B10CB1012000E0002030BDCA43028211
:103F9000704741EA0203A0F8483070471AB183899C
:103FA0000B43838102E083898B438381704721B176
:103FB000828842F00802828004E082884FF6F7731C
:103FC0001A408280704701894FF6F87211400181D2
:103FD00070470A46002101894FF68F73194011433B
:103FE0000181704730B504460D4629462046FFF74B
:103FF000F0FF208940F00700208130BD2DE9F0411D
:1040000004460D4616461F46602D06D13B4601224A
:1040100031462046FFF775FE05E03B46012231465A
:104020002046FFF7A4FE29462046FFF7D2FF20894D
:1040300040F007002081BDE8F08130B50C4600213A
:104040000189C9B24FF6FF7505EA032515432543DB
:104050002943018130BD2DE9F04105460E46174642
:104060009846002443463A4631462846FFF7E5FF86
:104070002C894FF6F870044044F007044FF68F7017
:10408000044044F070042C81BDE8F081F0B5044692
:104090000D4616461F463B46324629462046FFF748
:1040A000CCFF208940F480402081F0BD82884FF60B
:1040B0008F731A40828082880A4382807047028907
:1040C0004FF6F8731A40028102890A430281704751
:1040D00002894FF67F731A40028102890A430281E6
:1040E0007047F0B50C4615461E46002100220023FD
:1040F0000189028B038C4FF6F877394021434FF644
:10410000FC473A4040F201173A434FF6DD773B4017
:104110004FF6FF7707EA06172F433B4301810283DF
:104120000384F0BD21B1828842F08002828004E0E5
:1041300082884FF67F731A4082807047A0F8501033
:104140007047000010B50446F748844208D10121A9
:104150001020FFF7CDF800211020FFF7C9F83EE04E
:10416000F248844209D101214804FFF7B0F8002148
:104170004FF40030FFF7ABF831E0ED48844209D14D
:1041800001218804FFF7A3F800214FF48020FFF7F6
:104190009EF824E0E748844209D10121C804FFF7D2
:1041A00096F800214FF40020FFF791F817E0E2485D
:1041B000844209D101210805FFF789F800214FF455
:1041C0008010FFF784F80AE0DC48844207D101211F
:1041D0002020FFF78DF800212020FFF789F810BD7F
:1041E0002DE9FF4705460E460024A14600BFA04624
:1041F000B08900B100BF2C8A24F44054F0880443F5
:104200002C82AC8941F20C608443B0883189084328
:10421000718908430443AC81AC8A24F44074B089AA
:104220000443AC826846FEF722FFBF48854202D0B5
:10423000C248854202D1DDF80C9001E0DDF808901B
:10424000A88900F4004040B109EBC90000EB091057
:1042500031684900B0FBF1F707E009EBC90000EB5A
:10426000091031688900B0FBF1F76420B7FBF0F06A
:1042700004012009642101FB1078A88900F40040A2
:1042800040B1322000EBC800B0FBF1F000F00700B5
:10429000044308E0322000EB08106421B0FBF1F089
:1042A00000F00F0004432C81BDE8FF874FF4165146
:1042B000016000218180C18001810C2141810021A8
:1042C0008181704710B502460020108A20F470608A
:1042D0000B884C8823438C882343CC882343184382
:1042E000108210BD0021018041808180C180704713
:1042F00021B1828942F40052828104E082894DF624
:10430000FF731A4082817047028B02F47F4202835E
:10431000028B0A430283704721B1828942F4004232
:10432000828103E08289C2F30E028281704721B14B
:10433000828A42F40062828204E0828A4FF2FF7332
:104340001A4082827047C1F308028280704701469A
:104350008888C0F308007047028A4FF6F0731A404D
:104360000282028A0A430282704721B1828942F0A6
:104370000202828104E082894FF6FD731A40828135
:10438000704782894FF2FF731A40828182890A4303
:1043900082817047028A4FF6DF731A400282028AD6
:1043A0000A430282704721B1028A42F480420282AB
:1043B00004E0028A4BF6FF731A400282704781893B
:1043C00041F001018181704721B1828A42F00802E7
:1043D000828204E0828A4FF6F7731A408282704725
:1043E000028BD2B20283028B42EA0122028370471F
:1043F00021B1828A42F02002828204E0828A4FF652
:10440000DF731A408282704721B1828A42F0100223
:10441000828204E0828A4FF6EF731A4082827047EC
:10442000828A4FF6FB731A408282828A0A43828212
:10443000704721B1828A42F00202828204E0828ABD
:104440004FF6FD731A40828270471AB1838A0B437C
:10445000838202E0838A8B4383827047F0B50346F0
:10446000002400260025002040F66A17B94200D13A
:1044700000BF1846C1F3421401F01F06012707FAD6
:1044800006F5012C01D10C3004E0022C01D11030D2
:1044900000E014301AB107682F43076002E0076894
:1044A000AF430760F0BD02460020B1F5007F00D1A8
:1044B00000BF13880B400BB1012000E000207047C3
:1044C00001F40072B2F5007F00D100BFCA43028040
:1044D000704770B50246002400230025002040F6F6
:1044E0006A16B14200D100BFC1F3421501F01F03AB
:1044F000012606FA03F3012D02D19689334006E026
:10450000022D02D1168A334001E0968A33400C1204
:10451000012606FA04F41688344013B10CB10120C8
:1045200000E0002070BD0000001001400044004089
:1045300000480040004C0040005000400014014082
:1045400010B50022002340F66A14A14200D100BF3A
:104550000A1201249440A3B2DC43048010BD000081
:104560000CB50020019000907648006840F480303F
:104570007449086000BF7348006800F40030009080
:104580000198401C0190009818B90198B0F5A06FEF
:10459000F1D16C48006800F4003010B101200090A7
:1045A00001E0002000900098012846D16548403085
:1045B000006840F0805063494031086062480068FC
:1045C00040F48040604908605E48083000685D49FA
:1045D000083108600846006840F40040086008465A
:1045E000006840F4A05008605848091F0860081F80
:1045F000006840F08070091F086000BF51480068E3
:1046000000F000700028F9D040F2056050490860C1
:104610004C480830006820F003004A49083108601F
:104620000846006840F00200086000BF45480830B6
:10463000006800F00C000828F8D10CBD10B5454802
:10464000006840F47000434908603E48006840F04C
:1046500001003C49086000203A49083108603948A7
:1046600000683D490840374908603C48091D08601A
:10467000081F006820F48020091F086000203149CD
:104680000C310860FFF76CFF4FF000603149803952
:10469000086010BD70B50020002202230024022112
:1046A000284D08352D6805F00C0020B1042806D0EF
:1046B000082834D107E02A4D2A4E356033E02A4DD0
:1046C000284E35602FE01F4D2D1D2D68C5F38054F9
:1046D0001C4D2D1D2D6805F03F0154B1224DB5FB39
:1046E000F1F5184E361D3668C6F3881605FB06F23E
:1046F00009E01B4DB5FBF1F5124E361D3668C6F3C9
:10470000881605FB06F20F4D2D1D2D68C5F30145DA
:104710006D1C6B00B2FBF3F5124E356003E0104DDB
:10472000104E356000BF00BF064D08352D68C5F33B
:1047300003150E4E705D0B4D2D68C540094E35605A
:1047400070BD00000038024000700040085440076F
:10475000003C024088ED00E0FFFFF6FE1030002430
:104760000024F4006400002000127A006800002099
:1047700000B585B001218803FEF752FD01210846EE
:10478000FEF70AFD1020039000208DF810008DF830
:10479000120001208DF8130002208DF8110003A9EA
:1047A0001A48FEF7B3FA04210020FEF741FE10205C
:1047B000009000208DF804000C208DF805000120E9
:1047C0008DF806006846FEF7B3F90A208DF8080058
:1047D00002208DF8090000208DF80A0001208DF8D4
:1047E0000B0002A8FDF701FA05B000BD10B51020BE
:1047F000FEF704FA40B11020FEF7FCF91020FEF796
:104800000EFA01200249087010BD000000000240AD
:104810004801002010B50446FA480068401CF949D8
:10482000086008460068A0420AD101225102F648F9
:10483000FEF7ECFA01221146F348FEF7E7FA0FE023
:104840006000F049096888420AD100224FF40071E3
:10485000ED48FEF7DBFA00220121EB48FEF7D6FA1D
:104860006000E8490968884202DC0020E5490860E8
:1048700010BD30B5002000210022E44B1B785B1CEA
:10488000E24C237023461B78042B7DDD002323702C
:10489000DF4B1B68DF4C2360DF4B1B68DF4C236062
:1048A000DF4B1B68DA4C2360DE4B1B68DA4C23605D
:1048B000D74B1B68D74C24681B1BDB4CDB4D2D688A
:1048C00044F82530D44B1B68D44C24681C1BD84BAF
:1048D000D64D2D6843F82540D34BD44C246853F86B
:1048E000243042F21074A3420CDDCF4BCF4C24682D
:1048F00053F82430A3F57F43FF3BCB4CCB4D2D68C1
:1049000044F82530CA4BC94C246853F8243042F28D
:104910001074A3420CDDC64BC44C246853F82430F9
:10492000A3F57F43FF3BC24CC04D2D6844F82530B2
:10493000BD4BBE4C246853F82430BE4CA3420CDA65
:10494000B94BBA4C246853F824304FF6FF741C441A
:10495000B54BB64D2D6843F82540B54BB34C246894
:1049600053F82430B34CA3420CDAB14BAF4C24685B
:1049700053F824304FF6FF742344AD4CAB4D2D68F3
:1049800044F82530A84B00E064E0A84C246853F8B4
:104990002430B3F5FA7F06DD4FF4FA73A24CA34D31
:1049A0002D6844F82530A24BA04C246853F82430DD
:1049B000B3F5FA7F06DD4FF4FA739D4C9B4D2D68DD
:1049C00044F82530984B994C246853F8243013F55B
:1049D000FA7F05DA984C944B944D2D6843F82540A6
:1049E000934B924C246853F8243013F5FA7F05DA80
:1049F000914C8F4B8D4D2D6843F825408B4B1B6898
:104A00005B1C8A4C236023461B68092B01DD0023B5
:104A10002360002008E0844B53F820301944844B75
:104A200053F820301A44401C0A28F4DB0A2391FB77
:104A3000F3F300EE103AB8EEC00A804B83ED000AA3
:104A40000A2392FBF3F300EE103AB8EEC00A7C4B57
:104A500083ED000A30BD7B48D0ED000A7A4801782A
:104A60000078401C784A1070784800EB8100C0ED57
:104A7000000A10460078042802DD00201146087064
:104A800000212DE0002025E0704A02EB8002D2EDEB
:104A9000000A6E4B421C03EB820292ED001AF4EE08
:104AA000C10AF1EE10FA13DD1A4602EB800292ED14
:104AB000000A421C03EB8202D2ED000A1A4602EB06
:104AC0008002C2ED000A421C03EB820282ED000A62
:104AD000421CD0B2C1F104028242D5DC481CC1B2F2
:104AE0000529CFDB5948D0ED020A5948C0ED000A2C
:104AF0005848007858B958480078401C5649087002
:104B000008460078642805DD6420087002E0002073
:104B100051490870504800780A2803DD00204F49A9
:104B2000087002E001204D490870002049490870D2
:104B30007047F0EE401AB0EE602ADFED492AB0EE81
:104B4000620AFBEE042AF0EE620ADFED462AB0EEBE
:104B5000621A9FED453B464880ED003B3C48D0ED56
:104B6000002AB0EE620AF2EE042AB4EEE20AF1EE96
:104B700010FA03DDF2EE042AB0EE620AFAEE042A1D
:104B8000B4EEE20AF1EE10FA03D2FAEE042AB0EE25
:104B9000620A3848D0ED002A9FED373AF4EEC32A76
:104BA000F1EE10FA03DDDFED342AC0ED002A3148C2
:104BB000D0ED002A9FED313AF4EEC32AF1EE10FA5F
:104BC00003D2DFED2E2AC0ED002A60EE802A2948AC
:104BD00090ED003A41EE032AFDEEE22A2848C0EDAE
:104BE000002A0068C82802DDC8202549086024483A
:104BF000006810F1C80F03DA6FF0C70020490860A1
:104C000070470000C002002000040240C4020020DF
:104C1000C8020020D0020020CC020020D4020020D4
:104C20002404004024080040DC080020D8020020B2
:104C30000C090020F0D8FFFF0CFEFFFFA4010020AC
:104C4000A8010020DC000020DC0200203C0900203C
:104C500054010020B8010020B9010020BA01002051
:104C600000000000333393C000000000000000008B
:104C7000680100203C01002000004842000048C2BA
:104C800094010020FE4A92ED001A5FED0B0AF0EE4F
:104C9000001A41EE810AFDEEE00AFA4AC2ED000A6E
:104CA0001268322A02DD3222F64B1A60F54A126887
:104CB00012F1320F03DA6FF03102F24B1A607047D3
:104CC00030B52DED048B95B00024EF4890ED000A2F
:104CD000EE4880ED000AEE4890ED000AED4880EDC8
:104CE000000AED4890ED000ADFEDEC0A80EE201A94
:104CF00011EE105A284606F0D7F841EC190B9FED3B
:104D0000E80B53EC102B05F0BEFF41EC180B06F03E
:104D10000FF9E5490860E54890ED000AE44880EDA8
:104D2000000AE44890ED000AE34880ED000A5320B1
:104D3000E24908704920487000BF4AE0D348005D4E
:104D400001A90855D348015D01AA201D1154D64878
:104D5000015D04F108001154D548015D04F10C0017
:104D60001154D548015D04F110001154D448015D7F
:104D700004F114001154D348015D04F118001154DA
:104D8000D148015D04F11C001154D048015D04F1CB
:104D900020001154CE48015D04F124001154C5488F
:104DA000015D04F128001154CA48015D04F12C0092
:104DB0001154C948015D04F130001154C748015D28
:104DC00004F134001154C648015D04F13800115457
:104DD000641C042CB2DB002405E001A8015DB74A85
:104DE000A01C1154641C3C2CF7DB4120B34981F812
:104DF0003E0000250DE0B148415DBA48FFF7A3FA37
:104E000000BF8021B748FFF74EFB0028F9D0681C8F
:104E1000C5B23F2DEFDB15B0BDEC048B30BD10B536
:104E20002DED0E8BB04890ED161BB0EE410AF0EE62
:104E3000610A51EC100B81F0004141EC1C0B9FED1D
:104E4000AB0B53EC102B05F090FF41EC1B0B9FEDCF
:104E5000940B53EC102B05F016FF41EC1A0B9FED51
:104E6000A50B53EC102B05F00EFF41EC190B9FED39
:104E7000A30B53EC102B05F078FF41EC180B06F058
:104E800057F8A0490860A04890ED161BB0EE410A03
:104E9000F0EE610A9FED951B53EC112B51EC100BBA
:104EA00005F063FF41EC1B0B9FED7D0B53EC102BCA
:104EB00005F0E9FE41EC1A0B9FED8E0B53EC102B25
:104EC00005F0E1FE41EC190B9FED8C0B53EC102B20
:104ED00005F04BFF41EC180B06F02AF88B490860EF
:104EE0008B4890ED161BB0EE410AF0EE610A9FED83
:104EF0007F1B53EC112B51EC100B05F036FF41ECEE
:104F00001B0B9FED670B53EC102B05F0BCFE41EC27
:104F10001A0B9FED780B53EC102B05F0B4FE41EC0F
:104F2000190B9FED760B53EC102B05F01EFF41EC97
:104F3000180B05F0FDFF77490860774890ED161BC8
:104F4000B0EE410AF0EE610A51EC100B81F0004125
:104F500041EC1C0B9FED650B53EC102B05F005FF8E
:104F600041EC1B0B9FED4E0B53EC102B05F08BFE11
:104F700041EC1A0B9FED5F0B53EC102B05F083FEF9
:104F800041EC190B9FED5D0B53EC102B05F0EDFE82
:104F900041EC180B05F0CCFF60490860604890EDCB
:104FA000000A604880ED000A564890ED000A574814
:104FB000D0ED000A30EE200A5648D0ED000A30EE5F
:104FC000200A0846D0ED000A30EE200AF1EE000A71
:104FD00080EE201A524880ED001A90ED000A5148E8
:104FE000D0ED000A30EE600A4F4880ED000A2A48F2
:104FF00090ED000ADFED290A80EE201A11EE104A2A
:10500000204605F051FF41EC1E0B9FED250B53ECA4
:10501000102B05F038FE41EC1D0BB0EE4D0AF0EE02
:105020006D0A06F039F9B0EE40BAF0EE60BA3E48CB
:10503000006805F039FF41EC1C0B53EC1B2B05F00D
:1050400022FE41EC190B1048006805F02DFF41ECE1
:105050001A0B53EC192B05F06FFD41EC180B05F002
:1050600067FF094908600C4890ED000ADFED0B0A64
:1050700080EE201A11EE104A204605F015FF55E08B
:10508000400100209801002008020020300200208A
:105090000C020020340200201002002000003443E3
:1050A0004AD8124DFB210940380200202802002076
:1050B0003C02002058020020400200206C08002022
:1050C00044020020480200204C0200205002002030
:1050D000540200205C0200206002002064020020D4
:1050E00068020020004C0040780900200000000009
:1050F00000806640000000000000634000000000E7
:1051000000003340EC010020D8090020F00100200D
:10511000380A0020F4010020980A0020F80100203D
:10512000FC010020000200200402002041EC1E0BC4
:105130001FED250B53EC102B05F0A5FD41EC1D0BCD
:10514000B0EE4D0AF0EE6D0A06F00AF9B0EE40BA84
:10515000F0EE60BAFE48006805F0A6FE41EC1C0BBC
:1051600053EC1B2B05F08FFD41EC190BF94800683F
:1051700005F09AFE41EC1A0B53EC192B05F0DCFC00
:1051800041EC180B05F0D4FEF2490860F249B1F980
:105190005010F24AB2F95020881A05F055FE41EC41
:1051A0001A0B9FEDEF0B53EC102B05F06CFD41EC4F
:1051B000190B9FEDED0B53EC102B05F064FD41EC4A
:1051C000180B05F0B5FEEA490860EA4890ED000AC0
:1051D000E94880ED000ABDEC0E8B10BD00B52DED49
:1051E000088B81B0E5480078012829D1E349886817
:1051F00005F02AFE41EC190B9FEDE10B53EC102B4F
:1052000005F041FD41EC180B05F092FEDE49086007
:10521000DA49486805F018FE41EC190B9FEDDB0BED
:1052200053EC102B05F02FFD41EC180B05F080FE20
:10523000D84908609FEDD80AD84880ED000A51E0AF
:10524000D74890ED000A10EE101A084605F02CFE23
:1052500041EC1A0B9FEDD30B53EC102B05F013FD13
:1052600041EC190B9FEDC00B53EC102B05F07DFDAD
:1052700041EC180B05F05CFEC3490860CB4890ED8B
:10528000000A10EE101A084605F00EFE41EC1A0B4B
:105290009FEDC40B53EC102B05F0F5FC41EC190B02
:1052A0009FEDB10B53EC102B05F05FFD41EC180B9B
:1052B00005F03EFEB7490860BD4890ED000A10EECB
:1052C000101A084605F0F0FD41EC190B9FEDB90BE3
:1052D00053EC102B05F0D7FC41EC180B05F028FE21
:1052E000AE490860A84890ED000AF3EE030A20EEEC
:1052F000200A80ED000AA94890ED000AF3EE030AA7
:1053000020EE200A80ED000AA24890ED000AF3EE9C
:10531000030A20EE200A80ED000A9B4890ED000A67
:10532000F9EE040AB4EEE00AF1EE10FA08D290EDBC
:10533000000AF1EE040A30EE200A80ED000A17E0C0
:10534000914890ED000AF1EE040AB4EEE00AF1EEA5
:1053500010FA04D29FED900A80ED000A08E08A4816
:1053600090ED000AF1EE040A30EE600A80ED000ACA
:10537000854890ED000ADFED910AB4EEE00AF1EE07
:1053800010FA03DD9FED8D0A80ED000A7E4890ED56
:10539000000ADFED8B0AB4EEE00AF1EE10FA03D258
:1053A0009FED870A80ED000A7C4890ED000AF9EE37
:1053B000040AB4EEE00AF1EE10FA08D290ED000A09
:1053C000F1EE040A30EE200A80ED000A17E073487F
:1053D00090ED000AF1EE040AB4EEE00AF1EE10FAE4
:1053E00004D29FED6D0A80ED000A08E06B4890ED55
:1053F000000AF1EE040A30EE600A80ED000A674808
:1054000090ED000ADFED6D0AB4EEE00AF1EE10FA5D
:1054100003DD9FED6A0A80ED000A604890ED000A06
:10542000DFED670AB4EEE00AF1EE10FA03D29FED69
:10543000640A80ED000A574890ED000AF9EE040A6C
:10544000B4EEE00AF1EE10FA08D290ED000AF1EEA7
:10545000040A30EE200A80ED000A17E04D4890ED76
:10546000000AF1EE040AB4EEE00AF1EE10FA04D2FA
:105470009FED490A80ED000A08E0464890ED000AD9
:10548000F1EE040A30EE600A80ED000A414890ED2A
:10549000000ADFED4A0AB4EEE00AF1EE10FA03DD8D
:1054A0009FED460A80ED000A3A4890ED000ADFEDD4
:1054B000440AB4EEE00AF1EE10FA03D29FED400A7E
:1054C00080ED000AB2EE000A3E4880ED000A9FED32
:1054D0003E0A3E4880ED000A9FED2F0A3C4880EDD1
:1054E000000A3C4890ED010A3B4880ED010A39482A
:1054F00090ED020A384880ED020A364890ED030A22
:10550000354880ED030A334890ED040A324880EDB7
:10551000040A1D4890ED000AB1EE400A1D48D0ED86
:10552000000A30EE200A1D48D0ED000A30EE200AB5
:10553000284880ED010A144890ED000A1548D0ED86
:10554000000A30EE200A1548D0ED000A46E00000BF
:10555000040200200C020020D80900207809002055
:10556000000000000000E03F68B3EA73B5D51F40BB
:1055700028020020580200202C020020540900209C
:105580009A9999999999E93F1C0200209A999999B9
:105590009999D93F24020020000000002002002039
:1055A000780200200000000000408F407C020020B4
:1055B00088020020000000000000594000007A45E9
:1055C00000007AC5580100208FC2753D5C010020A3
:1055D00060010020D0060020E406002030EE200A02
:1055E000FE4880ED020AFE4890ED000AFD48D0ED2D
:1055F000000A30EE600AFC48D0ED000A30EE200AC6
:10560000F64880ED030AF64890ED000AB1EE400A34
:10561000F448D0ED000A30EE600AF348D0ED000AFD
:1056200030EE200AED4880ED040AF04890ED010AC2
:1056300010EE101A084605F037FC41EC1B0B1FED6D
:10564000300B53EC102B05F01EFB41EC190BE3481B
:1056500090ED010A10EE101A084605F025FC41EC09
:105660001B0B9FEDE30B53EC102B05F00CFB41ECF7
:105670001A0B53EC192B05F05FFA41EC180B05F0EF
:1056800057FCD6494860D94890ED020A10EE101A2E
:10569000084605F009FC41EC1B0B1FED470B53ECD2
:1056A000102B05F0F0FA41EC1A0BCC4890ED020AF1
:1056B00010EE101A084605F0F7FB41EC1B0B9FEDAE
:1056C000CC0B53EC102B05F0DEFA41EC180B53EC2D
:1056D0001A2B05F031FA41EC190B05F029FCBF49F2
:1056E0008860C24890ED030A10EE101A084605F0D3
:1056F000DBFB41EC1B0B1FED5E0B53EC102B05F09D
:10570000C2FA41EC180BB54890ED030A10EE101ADE
:10571000084605F0C9FB41EC1B0B9FEDB50B53ECA4
:10572000102B05F0B0FA41EC190B53EC182B05F0D7
:1057300003FA41EC1A0B05F0FBFBA849C860AB4823
:1057400090ED040A10EE101A084605F0ADFB41EC8E
:105750001B0B1FED750B53EC102B05F094FA41EC6D
:10576000180B9E4890ED040A10EE101A084605F03A
:105770009BFB41EC1B0B9FED9E0B53EC102B05F09C
:1057800082FA41EC190B53EC182B05F0D5F941ECDA
:105790001A0B05F0CDFB91490861084690ED010A0E
:1057A0005FED7A0AB4EEE00AF1EE10FA03DD1FEDC8
:1057B0007D0A80ED010A894890ED020A5FED810AB9
:1057C000B4EEE00AF1EE10FA03DD1FED840A80ED7D
:1057D000020A824890ED030A5FED880AB4EEE00AFF
:1057E000F1EE10FA03DD1FED8B0A80ED030A7B4812
:1057F00090ED040A5FED8F0AB4EEE00AF1EE10FAC4
:1058000003DD1FED920A80ED040A744890ED010A51
:105810005FED950AB4EEE00AF1EE10FA03D21FED47
:10582000980A80ED010A6D4890ED020A5FED9C0A2E
:10583000B4EEE00AF1EE10FA03D21FED9F0A80EDFC
:10584000020A664890ED030A5FEDA30AB4EEE00A8F
:10585000F1EE10FA03D21FEDA60A80ED030A5F48AD
:1058600090ED040A5FEDAA0AB4EEE00AF1EE10FA38
:1058700003D21FEDAD0A80ED040A5848D0ED010AAD
:105880005D48B0F9500000EE100AB8EEC00A30EEE4
:10589000C00A10EE101A084605F006FB41EC190B81
:1058A0009FED560B53EC102B05F0EDF941EC180B66
:1058B00005F03EFB534948604848D0ED020A524883
:1058C000B0F9500000EE100AB8EEC00A30EEC00A7F
:1058D00010EE101A084605F0E7FA41EC190B9FED9F
:1058E000470B53EC102B05F0CEF941EC180B05F0EB
:1058F0001FFB444988603948D0ED030A4348B0F99A
:10590000500000EE100AB8EEC00A30EEC00A10EEE9
:10591000101A084605F0C8FA41EC190B9FED370B39
:1059200053EC102B05F0AFF941EC180B05F000FB20
:105930003449C8602948D0ED040A3548B0F9500010
:1059400000EE100AB8EEC00A30EEC00A10EE101ACF
:10595000084605F0A9FA41EC190B9FED280B53EC12
:10596000102B05F090F941EC180B05F0E1FA2549F0
:105970000861084690ED010ADFED260AB4EEE00A60
:10598000F1EE10FA03DD9FED230A80ED010A1D48B8
:1059900090ED020ADFED1F0AB4EEE00AF1EE10FA14
:1059A00003DD9FED1C0A80ED020A164890ED030A04
:1059B000DFED180AB4EEE00AF1EE10FA03DD9FED18
:1059C000150A80ED030A0F4890ED040ADFED110A75
:1059D000B4EEE00AF1EE10FA22DD1DE0D006002060
:1059E0001C0200202402002020020020E4060020E7
:1059F0009A9999999999C93F780900200000000067
:105A00000000F03F48070020D8090020380A002095
:105A1000980A0020000016441FED020A80ED040AD7
:105A2000FE4890ED010ADFEDFE0AB4EEE00AF1EE69
:105A300010FA03D29FEDFA0A80ED010AF74890EDC3
:105A4000020ADFEDF70AB4EEE00AF1EE10FA03D233
:105A50009FEDF30A80ED020AF04890ED030ADFEDB6
:105A6000F00AB4EEE00AF1EE10FA03D29FEDEC0A70
:105A700080ED030AE94890ED040ADFEDE90AB4EE8F
:105A8000E00AF1EE10FA03D29FEDE50A80ED040A78
:105A9000E24890ED010AE348D0ED010A70EE600A99
:105AA000E14890ED010AE14890ED001A01EE200A6C
:105AB000DD4880ED010ADE4890ED010AD748D0EDBF
:105AC000010ADC4890ED001A01EE200AD84880ED6A
:105AD000010AD24890ED010AD248D0ED010AB0EE99
