:020000040800F2
:1000000038D2002061200008F5030008D906000856
:10001000DB060008DD060008DF060008000000001F
:10002000000000000000000000000000E1060008E1
:10003000E306000800000000E5060008E7060008E7
:100040007B2000087B2000087B2000087B20000824
:100050007B2000087B2000087B2000087B20000814
:100060007B2000087B2000087B2000087B20000804
:100070007B2000087B2000087B2000087B200008F4
:100080007B2000087B2000087B2000087B200008E4
:100090007B2000087B2000087B200008EF0600087A
:1000A0007B2000087B2000087B2000087B200008C4
:1000B00093060008150700087B2000087B20000835
:1000C0007B2000087B2000087B2000087B200008A4
:1000D0007B200008A5040008D1040008A70500083B
:1000E0007B2000087B2000087B2000087B20000884
:1000F0007B2000087B2000087B2000087B20000874
:100100007B200008EB0600087B2000087B2000080D
:100110007B2000087B2000087B2000087B20000853
:100120007B2000087B2000087B2000087B20000843
:10013000DFF80CD003F0ACFE00480047C502000811
:1001400038D2002000220028D8BF70470221491C65
:10015000B1F5FA6FFBDB521C8242F7DB70470022DD
:100160000028D8BF70470221491C0A29FCDB521C19
:100170008242F8DB704710B59A4C4FF41671204656
:1001800003F050FD4FF41671204603F04FFD00219F
:10019000204603F049FD2046BDE81040002103F051
:1001A00047BD10B58F4C0021204603F03BFD0021D8
:1001B000204603F03BFD4FF41671204603F034FD5A
:1001C0002046BDE810404FF4167103F031BD10B564
:1001D000844C0021204603F025FD4FF46171204638
:1001E00003F024FD4FF46171204603F01DFD20460D
:1001F000BDE81040002103F01BBD10B5794C4FF451
:100200006171204603F00EFD0021204603F00EFD33
:100210000021204603F008FD2046BDE810404FF4C1
:10022000617103F005BD10B56E4C0021204603F04E
:10023000F9FC0021204603F0F9FC0021204603F0E0
:10024000F3FC2046BDE81040002103F0F1BC7047EC
:100250007047704770477047704700220028D8BF2A
:10026000704700BF41F26D71491EB1F1FF3FFBDCE9
:10027000521C9042F6DC704710B50028DCBF022209
:10028000002115DD584C8021204602F042F941F250
:100290006D71491EB1F1FF3FFBDC8021204602F069
:1002A0003AF941F26D70401EB0F1FF3FFBDC10BD2A
:1002B00041F26D70401EB0F1FF3FFBDC491C8A42E9
:1002C000F6DC10BD01F01AFE4FF4E13001F06AFDDA
:1002D000454D464F464C00262068012802D0022892
:1002E00029D054E04021284602F013F96068002824
:1002F000DCBF0222002014DD8021284602F009F92B
:1003000041F26D70401EB0F1FF3FFBDC80212846BA
:1003100002F001F941F26D70401EB0F1FF3FFBDCCD
:1003200031E041F26D71491EB1F1FF3FFBDC401C31
:100330008242F6DC27E04021284602F0ECF86068B3
:100340000028DCBF0222002014DD8021284602F0B4
:10035000E0F841F26D70401EB0F1FF3FFBDC802100
:10036000284602F0D8F841F26D70401EB0F1FF3F10
:10037000FBDC08E041F26D71491EB1F1FF3FFBDC8F
:10038000401C8242F6DC6068401E606000D56660FA
:10039000A06801280DD10103384602F0BAF84FF4E5
:1003A0000051384602F0B5F84FF48041384602F06B
:1003B000B0F8A06864280ED14FF48051384602F09E
:1003C000AAF84FF40051384602F0A5F84FF48041E6
:1003D000384602F0A0F8A068411CA160C828C8BF38
:1003E000A66079E70004004000080140000C0140CD
:1003F0000C000020704770B5CE4C0122A17829B1C5
:100400000225012907D002290CD008E0AA2808BF3C
:10041000A27004D170BDBB2804BFA57070BD0020C0
:10042000A07070BDC44BDFF814C3E070014642F603
:10043000E066502808BF1A6007D0512908BF1D6028
:1004400003D0BF4D202903D006E0CCF8006070BD7A
:100450000421284602F05FF8E078212803D1042126
:10046000284602F056F8E078302803D108212846C3
:1004700002F051F8E078312803D10821284602F033
:1004800048F8E078402803D11021284602F043F8CC
:10049000E078412818BF70BD10212846BDE87040A3
:1004A00002F037B810B5A74C40F22551204602F0B3
:1004B0007DFC002808BF10BD40F22551204602F007
:1004C0009BFC204602F011FCBDE81040C0B292E750
:1004D0002DE9F0419C4F002540F22551384602F0AD
:1004E00065FC002808BFBDE8F08140F22551384680
:1004F00002F082FC384602F0F8FB8E49C2B2934CFF
:1005000048782254401C48702A2A18BFBDE8F08160
:1005100000264E70217894F801C0A37801EBC10049
:1005200000EB01100CEB8C026FF0090803EB80006C
:1005300008EB42028018864A106044BF00F5B47090
:10054000106001F13000C0B220700CF13001617018
:1005500003F13001A1702A280ED0615D384602F007
:10056000C0FB8021384602F017FC0028F9D0681C37
:10057000C5B2605D2A28F0D1615D384602F0B1FB5A
:100580008021384602F008FC0028F9D021780020AC
:100590002A2905D02654401CC0B2215C2A29F9D151
:1005A0002654BDE8F08170B56A4C40F225512046D2
:1005B00002F0FCFB002808BF70BD40F22551204628
:1005C00002F01AFC204602F090FBC0B200246249FF
:1005D000624D012821D0022828D003282ED00428DB
:1005E00035D0012605283DD05D49072804BF0E708F
:1005F00070BD082804BF0C7070BD5A49092839D055
:100600000A283ED00B2818BF70BD03200870BDE833
:10061000704055A1002001F0D2BCB420086056A162
:10062000002001F0CCFCFFF7A6FD19E00C6055A1FD
:10063000002001F0C4FCFFF7B4FD11E05A2008606F
:1006400053A1002001F0BBFCFFF7C1FD08E04FF40F
:100650008770086051A1002001F0B1FCFFF7CDFDCB
:100660002C7070BD50A1002001F0A9FCFFF7DBFD4C
:100670002E7070BD0E70BDE870404EA1002001F0DC
:100680009EBC02200870BDE870404EA1002001F021
:1006900096BC10B50121880703F0ECFA002808BFCA
:1006A00010BD24484168491C416002290ED900212F
:1006B0004160484C4FF40051204601F020FFC0F14A
:1006C0000100C2B26114204601F027FF0121BDE8FC
:1006D0001040880703F0D9BAFEE7FEE7FEE7FEE721
:1006E00070477047704701F034BC01F017BB10B57C
:1006F000402002F0F2FB002808BF10BD2021364840
:1007000001F009FF0B4901200870BDE810404020AE
:1007100002F0EFBB10B5314C0121204603F0AAFADC
:10072000002808BF10BD01212046BDE8104003F09D
:10073000ACBA0000180000200C00002010000020BF
:1007400000080140003801400044004068010020DA
:1007500000000020004800400400002008000020A5
:10076000090000200A000020BAECCDE2B1DCD5CFB0
:10077000C4A3CABD00000000CFF2B1B1D2C6B6AF6B
:1007800000000000CFF2C4CFD2C6B6AF0000000018
:10079000CFF2CEF7D2C6B6AF00000000CFF2B6ABB4
:1007A000D2C6B6AF00000000CDA3D6B9C7B0BDF821
:1007B00000000000B6A8CEBBB5BCBABDC4A3CABD7C
:1007C00000000000B7BDCFF2B5BCBABDC4A3CABD1E
:1007D0000000000000140140000C01400004004033
:1007E00038B5002002F0A8F8002002F0A9F802F0C5
:1007F00071F800214FF4806002F010F84FF4F850C7
:10080000ADF8000004248DF803406946FE4801F06D
:100810000CFEADF800406946FC4801F006FE38BD0C
:1008200008B54FF4C06001F02DFC31208DF80000B8
:1008300000208DF801008DF8020001208DF80300E2
:10084000684601F026FC08BD2DE9F14F002782B073
:10085000384602F0ACF810F0007F1EBF0E2003B047
:10086000BDE8F08F0024EA4D00974FF0080B019788
:1008700010204FF04008C5F800B0C5E901084FF45A
:10088000806AC5E9037A284602F074F8E14E706B7D
:1008900010F0450FFBD040F2FF59C6F83890706950
:1008A00010F008001CBF03B0BDE8F08FDA480089E3
:1008B000000428603720C5E90108C5E9037AD44857
:1008C00002F058F8706B10F0450FFBD0C6F8389066
:1008D000706910F008001CBF03B0BDE8F08F4FF046
:1008E000FF31CE48C0E9001B302181600221C0E900
:1008F00003170121416102F061F83320C5F8088037
:10090000C5E900704FF48060C5E90370C04802F08B
:1009100031F8706B10F0450FFBD0C6F83890706955
:1009200010F008001CBF03B0BDE8F08F706B40F200
:100930002A6A10EA0A0F08BFEB460FD14FF40010E5
:1009400002F087F830B102F05AF84BF82400641C2A
:10095000012C03D8706B10EA0A0FEFD0082002F0C8
:1009600078F830B1082002F07CF803B00420BDE82C
:10097000F08F022002F06DF830B1022002F071F821
:1009800003B00220BDE8F08F202002F062F830B101
:10099000202002F066F803B00620BDE8F08F4FF487
:1009A000007002F056F838B14FF4007002F059F8B8
:1009B00003B00720BDE8F08F40F2FF5002F051F87D
:1009C00000980299062400BA012933D010F4803F20
:1009D0005DD091484FF4806A008900042860372078
:1009E000C5E90108C5E9037A894801F0C3FF706BC6
:1009F00010F0450FFBD0C6F83890706910F0080071
:100A00001CBF03B0BDE8F08FC5E90074C5F810A0A5
:100A1000C5E902877E4801F0ADFF706B10F0450F0D
:100A2000FBD000BFC6F83890706903B000F0080032
:100A3000BDE8F08F10F4802F29D077484FF4806AFA
:100A40000089000428603720C5E90108C5E9037A58
:100A50006F4801F08FFF706B10F0450FFBD0C6F8A8
:100A60003890706910F008001CBF03B0BDE8F08F2B
:100A70000220C5F810A0C5E90004C5E90287644852
:100A800001F078FF706B10F0450FFBD0CAE703B0A0
:100A90002520BDE8F08F2DE9F04101465E48002693
:100AA0004068032813D000281CBF012802282BD13E
:100AB000B1F5805F0BD000240127594DB1F5006FCF
:100AC00008D00020FFF7C0FE060014D01CE027204D
:100AD000BDE8F0810120FFF7B7FE060014D12F75A5
:100AE0002C604FF400606C60C5E902404C482C61FA
:100AF00001F0FDFE08E02F752C606C60AC60EC60CE
:100B000047482C6101F0F3FE3046BDE8F0814049D2
:100B100010B5086007204860402088600020C86049
:100B20004FF480600861084601F024FF3948416BAA
:100B300011F0450FFBD040F2FF518163406900F096
:100B4000080010BD2DE9F0033349364C4F6880F89A
:100B50004E700989A0F84C1021680A0E93090370A1
:100B6000C2F38303437002F0030282700A0CC27066
:100B70000A0A02714171D4F804C04FEA1C610901EC
:100B8000C180C288CCF3074142EA1112C28001F051
:100B90000F010172CCF30721CA094272C1F380121E
:100BA0008272C1F34012C272C1F3001202730026B6
:100BB000467322460125D2F80880002F4FEA1863B9
:100BC000C8F30742C8F3072918BF012F02D0022F2C
:100BD0003FD051E08907090D01610CF0FF01D0F809
:100BE00010C04CEA81010161016941EA9311016180
:100BF000C3F3C201017503F0070141755109817505
:100C0000C2F38201C1750FE00010014000140140E1
:100C10000C02002000800140200000202002002063
:100C2000F4010020740100209107490F0176027E33
:100C3000494642EAD11202760269037E521C9B1C8D
:100C400002FA03F3027A05FA02F282645A4342641A
:100C500012E04FEA8C61890A0161016941EA0321CE
:100C6000016101691143016102694946521CD204C4
:100C700042644FF400728264C1F3801242768906A6
:100C8000490E8176827E08F0FF0142EAD112827617
:100C900001F07F01C176E268110ECB090377C1F341
:100CA00041134377C1F3820383778907090FC17723
:100CB000C37FC2F3074143EA9113C377C1F34013E3
:100CC00080F8203080F8216001F0010180F82210C6
:100CD000C2F30721CB0980F82330C1F3801380F8D9
:100CE0002430C1F3401380F82530C1F3001380F89D
:100CF0002630C1F3810380F8273001F0030180F82A
:100D00002810C2F3460180F8291080F82A50FE4AC4
:100D100011680B0E80F82C300B0C1B02C385B0F849
:100D20002EC0C1F307234CEA0303C3850906016300
:100D30005168D0F830C00B0E4CEA03430363D0F87F
:100D400030C0C1F307434CEA03230363D0F830C03B
:100D5000C1F307234CEA0303036380F8341091685E
:100D60000B0E80F835300B0C1B068363D0F838C0AF
:100D7000C1F307234CEA03438363836BC9B243EA9D
:100D800001218163D168836B43EA1162826390F829
:100D90003C30C1F3074243EA121380F83C3012079B
:100DA000120DC287C38FC1F307221A43C287C1F352
:100DB000460180F8401080F841503046BDE8F0030D
:100DC00070472DE9F84F0120ADF8000001F0C1FD9A
:100DD000002804BF2520BDE8F88FCC4F7868042890
:100DE00071D0CB4C4FF0C00A00260220C4F808A0F6
:100DF000C4E900604FF48068C4E90368204601F04C
:100E0000B9FDC44D686B10F0450F03D1686B10F04D
:100E1000450FFBD010F0040F06D00324042001F08E
:100E200020FE2046BDE8F88F10F0010F06D0012407
:100E3000204601F016FE2046BDE8F88F40F2FF5034
:100E400001F00FFE002001F0B2FDDFF8BC92C9F8FE
:100E50000000042001F0ABFDC9F80400082001F0F7
:100E6000A6FDC9F808000C2001F0A1FDC9F80C008E
:100E70007868002818BF012803D0062818BF022868
:100E800040D10320C4E900604020C4F81080C4E9C8
:100E900002069F4801F06EFD686B4FF0030BE946B8
:100EA00010F0450F03D1686B10F0450FFBD010F028
:100EB000040F42D110F0010F45D101F074FD5845E7
:100EC00002D010241BE058E040F2FF5001F0C9FDB1
:100ED000002001F06CFD10F4604F04BF000CA9F875
:100EE00000000FD010F4005F18BF132407D110F4D6
:100EF000804FE6D110F4004F18BF0F2402D02046D7
:100F0000BDE8F88F7868042837D0BDF80000B860D5
:100F1000000420600920C4E9010AC4E903687C4890
:100F200001F028FD686B10F0450F03D1686B10F0DD
:100F3000450FFBD010F0040F02D00324042004E07E
:100F400010F0010F04D00124204601F08AFDD6E7FD
:100F500040F2FF5001F085FD002001F028FD6E4CAD
:100F60002060042001F023FD6060082001F01FFDD7
:100F7000A0600C2001F01BFDE0600020BDE8F88FB0
:100F80002DE9F05F65484FF00008B2210175C0F807
:100F90000080C0F80480C0F80880C0F80C80C24609
:100FA0004546C0F8108001F0A2FC032001F0C8FC07
:100FB000012001F0C1FC564C4FF4806720462560AB
:100FC0006560A560C4E9035701F0D4FCBE0101E0EF
:100FD000761E54D0802001F03CFD0028F8D0002E71
:100FE0004DD040F2FF5001F03CFD4FF4D570206031
:100FF00008204FF0400BC4E9010BC4E903574448F3
:1010000001F0B8FC434E4FF48032706B4FF037095B
:1010100010F0450F36D012B110F0040F38D0042074
:1010200001F01FFDC4F808B0C4E90059C4E9035732
:10103000374801F09FFC706B10F0450FFBD040F279
:10104000FF50B0637069C4E9005940202761C4E9CA
:1010500002052F4801F08EFC706B10F0450FFBD09D
:1010600040F2FF50B063716911F0080B02BF4FF0FE
:1010700040094AF4801A4AF0004A15D074E003206F
:10108000BDE8F09F002A1CBF706B521EC0D1C6E79E
:1010900010F0400F1CBF402001F0E3FC01211B4871
:1010A0004FF0804A4160CEE73720C4F80890C4E989
:1010B0000050C4E90357164801F05CFC706B10F057
:1010C000450FFBD040F2FF50B063706910F008008C
:1010D00018BFBDE8F09F2920C4F800A0C4E90109A9
:1010E000C4E903570A4801F045FC706B4FF0000B50
:1010F00010F0450F03D1706B10F0450FFBD010F0CE
:10110000040F15D00CE00000840100202000002016
:101110000C0200200080014074010020F401002036
:101120004FF0030B042001F09CFC5846BDE8F09FF3
:1011300040F2FF5001F095FC002001F038FCC10F97
:1011400008F1010803D14FF6FF718845ACD34FF683
:10115000FF71884524BF1B20BDE8F09F10F0804F31
:1011600002D0FF48022141605846BDE8F09F38B5E3
:101170000121302001F05BFB4FF4F850ADF8000086
:1011800003208DF8020018208DF803006946F54809
:1011900001F04BF90420ADF800006946F24801F077
:1011A00044F90121880201F039FB0121022001F0FC
:1011B00035FB01F08FFBFFF7E3FE002818BF38BDB9
:1011C000FFF7FFFD002818BF38BD0121E7480024C4
:1011D0000175046044608460C460046101F087FBB1
:1011E000E348FFF7AFFC002818BF38BDE048B0F86F
:1011F0004C000104DF480160072141604021C0E943
:1012000002140901016101F0B5FBDB48416B11F0EB
:10121000450FFBD040F2FF518163406910F0080098
:1012200018BF38BD4FF40060BDE8384033E40246D3
:10123000CB48D14900890004886040F24D40C86025
:10124000486B10F0450FFBD040F2FF5088634869AF
:1012500010F0080004BF496911607047C048008958
:101260000104C548816040F24D41C160416B11F0FD
:10127000450FFBD040F2FF518163416911F0080F27
:1012800006BF4069C0F34320FF207047B44800897F
:101290000104B948816040F24D41C160416B11F0D9
:1012A000450FFBD040F2FF518163416911F0080FF7
:1012B0000AD14069C0F34320042804BF00207047CE
:1012C000FF281CBF012070470220704710B5002482
:1012D000204601F035FB204610BD2DE9F0470446BD
:1012E000002001F064FB10F0007F1CBF0E20BDE861
:1012F000F08740279F4D10204FF4806AC5E90070A9
:101300004FF00009C5F810A0C5E90279284601F0A0
:1013100031FB994E706B10F0450FFBD040F2FF5837
:10132000C6F83880706910F0080018BFBDE8F08773
:101330008B480089000445F8040B372085E88106B6
:101340008C482D1F01F016FB706B10F0450FFBD081
:10135000C6F83880706910F0080018BFBDE8F08743
:101360004FF0FF318548C0E90017602181600221FC
:10137000C0E903190121416101F020FB0D20C5E9FD
:101380000090C5F810A0C5E902797A4801F0F2FA98
:10139000706B10F0450FFBD0C6F83880706910F004
:1013A00008071CBF3846BDE8F087706B40F22A681A
:1013B00010EA080F14D100BF4FF4004001F049FBC0
:1013C000002818BF002507D001F019FB44F82500BC
:1013D0006D1C082DF8D32034706B10EA080FEBD089
:1013E000082001F036FB28B1082001F03AFB042068
:1013F000BDE8F087022001F02CFB28B1022001F0AB
:1014000030FB0220BDE8F087202001F022FB28B14C
:10141000202001F026FB0620BDE8F0874FF4007085
:1014200001F017FB30B14FF4007001F01AFB0720F8
:10143000BDE8F0874FF4001001F00BFB50B100BF86
:1014400001F0DDFA44F8040B4FF4001001F001FB49
:101450000028F5D140F2FF5001F003FB3846BDE80B
:10146000F08710B504464648FFF737FF010018BF64
:1014700010BD43480278920922700278C2F34012EC
:101480006270827812026280C27863881A43628036
:101490000279120662604279636843EA024262603E
:1014A0008279636843EA02226260C27963681A4300
:1014B0006260027A2272427A6272827A1209A2729F
:1014C000C27A1202A281027BA3891A43A281427BC3
:1014D0009208A273407B00F00300E073084610BD41
:1014E0002DE9F74F1E488CB0002517468846057039
:1014F0000561C560204CE5624068022804BF4FF4D6
:1015000000774FEA51281B4E4FF4806B1020C6F82D
:1015100010B0C6E900704FF0400AC6E902A5304697
:1015200001F028FA606B10F0450FFBD040F2FF5934
:10153000C4F83890606910F008001CBF0FB0BDE817
:10154000F08F4FF0FF310D48C0E900179021816006
:101550000221C0E903150121416101F02FFA11E0D8
:10156000200000200010014000140140F401002080
:10157000A40100200C020020008001402002002075
:10158000940100201120C6F810B0C6E90080C6E919
:1015900002A5FE4801F0EEF9606B10F0450FFBD09C
:1015A000C4F83890606910F008001CBF0FB0BDE8A7
:1015B000F08F0121080201F0D1F9012001F0D7F9E3
:1015C000F3480C9C00F080FEF24E0021304600F003
:1015D00058FEF148CDE90004B808CDE9025080205A
:1015E000CDE90450800006908000CDE90705800019
:1015F000CDE909056946304600F00DFE012130466F
:1016000000F03FFE0FB02846BDE8F08F2DE9FF4FF8
:10161000E2488BB0002517468846057005614FF0FB
:10162000010AC0F80CA0DE4CE5624068022804BF45
:101630004FF400774FEA5128D44E4FF0400B102062
:10164000C6F808B0C6E900708001C6E9035030460C
:1016500001F090F9606B10F0450FFBD040F2FF599C
:10166000C4F83890606910F008001CBF0FB0BDE8E6
:10167000F08F4FF0FF31CB4801600E994F4390211E
:10168000C0E901710221C0F814A0C0E9031501F0FE
:1016900095F91220C6F808B0C6E900804FF48060C2
:1016A000C6E90350B94801F065F9606B10F0450FC9
:1016B000FBD0C4F83890606910F008001CBF0FB070
:1016C000BDE8F08F0121080201F048F9012001F086
:1016D0004EF9AF480B9C00F0F7FDAE4E00213046AE
:1016E00000F0CFFDAC48CDE90004B808CDE90250C8
:1016F0008020CDE90450800006908000CDE90705E8
:101700008000CDE909056946304600F084FD0121DD
:10171000304600F0B6FD0FB02846BDE8F08F70B53A
:10172000A14E9E4C0025304600F0C2FD002801BFAE
:101730002069002820780028F5D02078002814BFE0
:101740002078284670BD2DE9F74F94488CB00025CD
:101750001746884605700561C560914CE562406892
:10176000022804BF4FF400774FEA5128874E4FF00C
:10177000400B4FF48060C6F808B0C6E903504FF044
:101780001009C6E90079304601F0F4F8606B10F0FA
:10179000450FFBD040F2FF5AC4F838A0606910F042
:1017A00008001CBF0FB0BDE8F08F1820C6F808B0C5
:1017B000C6E900804FF48060C6E90350734801F029
:1017C000D9F8616B11F0450FFBD0C4F838A06069FF
:1017D00010F008001CBF0FB0BDE8F08F4FF0FF31D4
:1017E0007048C0E900179021C0E902150121C0E945
:1017F000045101F0E3F80121080201F0AFF8644858
:101800000C9C00F061FD634E0021304600F039FD74
:101810006148CDE90004CDF80890B808CDE903058A
:1018200080200590800006908000CDE907058000AB
:10183000CDE909056946304600F0EDFC012130464E
:1018400000F01FFD012001F092F80FB02846BDE81E
:10185000F08F2DE9FF4F8BB0504F002600969A462F
:10186000904689463E703E610120F8604C4DEE6224
:101870007868022804BF4FF400784FEA5129434C9E
:101880004FF0400B1020C4F808B0C4E9008080017C
:10189000C4E90360204601F06DF8686B10F0450F55
:1018A000FBD040F2FF50A863686910F008001CBF2D
:1018B0000FB0BDE8F08F3889000420603720C4E9FC
:1018C000010B4FF48060C4E90360304801F052F826
:1018D000686B10F0450FFBD040F2FF57AF636869AB
:1018E00010F008001CBF0FB0BDE8F08F1720C4E94E
:1018F00000A04FF4806B4020C4F810B0C4E9020689
:10190000224801F037F8686B10F0450FFBD0AF6349
:10191000686910F008001CBF0FB0BDE8F08F1920F7
:10192000C4E900904020C4F810B0C4E9020617488A
:1019300001F020F8686B10F0450FFBD0AF636869C9
:1019400010F008001CBF0FB0BDE8F08F4FF0FF3162
:1019500014480AFB08F4C0E900149021C0E90216FB
:101960000121C0E9046101F029F80121080200F019
:10197000F5FF012000F0FBFF05480B9D00F0A4FCE3
:10198000044F0021384600F07CFC0FE00C020020E0
:1019900000F000104404024080800140200000203C
:1019A000008001402002002000200010F348CDE913
:1019B000000510200290A008CDE9030680200590C4
:1019C000800006908000CDE907068000CDE9090679
:1019D0006946384600F01FFC0121384600F051FCF2
:1019E0000FB03046BDE8F08F70B5E54EE54C0025F0
:1019F000304600F05DFC002801BF206900282078F7
:101A00000028F5D0207800281CBF207870BD40F257
:101A1000FF5001F026F8284670BDDB48406B10F4FB
:101A2000405018BF012070470021D748816040F224
:101A30004C41C160416B11F0450FFBD040F2FF51AA
:101A40008163406900F00800704730B583B00446F8
:101A50000025CC48009501950089CC490004086018
:101A60000D2048604020C1E90205000108610846D8
:101A700000F080FFC449486B019010F0450F04D17D
:101A80004A6B019212F0450FFAD0019810F0040F42
:101A900006D00324042000F0E4FF03B0204630BD4C
:101AA000019810F0010F06D00124204600F0D9FF64
:101AB00003B0204630BD00F076FF01900D284AD1DA
:101AC00040F2FF5000F0CDFF002000F070FF0090CA
:101AD000C0F343202070AE49009808427ED00098A1
:101AE00010F0004F1EBF1C2003B030BD009810F056
:101AF000804F1EBF092003B030BD009810F0005F7A
:101B00001EBF0A2003B030BD009810F0805F1EBFDA
:101B10000B2003B030BD009810F0006F1EBF0C20EA
:101B200003B030BD009810F0806F1EBF0D2003B0D1
:101B300030BD009810F0807F1EBF0E2003B030BD76
:101B4000009810F4000F1EBF0F2003B030BD0098A6
:101B500010F4800F02D003B0102030BD009810F4B4
:101B6000001F1EBF112003B030BD009810F4801F6D
:101B70001EBF122003B030BD009810F4002F1EBF0E
:101B8000132003B030BD009810F4802F1EBF142026
:101B900003B030BD009810F4003F1EBF152003B005
:101BA00030BD009810F4803F1EBF162003B030BD3A
:101BB000009810F4004F1EBF172003B030BD0098EE
:101BC00010F4804F1EBF182003B030BD009810F4F1
:101BD000005F1EBF192003B030BD00E006E0009892
:101BE00010F0080F1EBF1A2003B030BD284603B006
:101BF00030BD2DE9F04F83B083460026654801963D
:101C00008DF8006040684FF0200A0F461AEA105F16
:101C100002BF252003B0BDE8F08F5B4D68685E49C8
:101C2000C0B2801CB1FBF0F00190002000F0BFFEBC
:101C300010F0007F1EBF0E2003B0BDE8F08F5148AA
:101C4000524C4FF0400840684FF48069022804BFAE
:101C50004FEA5B2B7F0A04D000281CBF0128022812
:101C60002ED1C4F81090C4E90286C4E900BA4748EE
:101C700000F080FE686B10F0450FFBD040F2FF5A79
:101C8000C5F838A0686910F008001CBF03B0BDE8B3
:101C9000F08F2120C4F81090C4E90070C4E90286D6
:101CA0003A4800F067FE686B10F0450FFBD0C5F8AE
:101CB00038A0686910F008001CBF03B0BDE8F08FC1
:101CC0002620C4E90060C4F81090C4E902862F48B9
:101CD00000F050FE686B10F0450FFBD040F2FF5053
:101CE000A863686910F008001CBF03B0BDE8F08F5E
:101CF0000199884238BF401CFAD36846FFF7A5FE19
:101D000000281CBF03B0BDE8F08F9DF80010072924
:101D100018BF0629F1D003B0BDE8F08F10B5194CFB
:101D2000E0680021012818BF21700CD04FF48070AA
:101D300000F0A2FE00214FF4807000F00FFE0120A1
:101D40002061207810BD1048816040F24C41C16094
:101D5000416B11F0450FFBD040F2FF5181634069A8
:101D600000F008002070E1E70021012804D0491CA0
:101D70004008C9B20128FAD1084670478080014066
:101D80000020001020000020008001400C020020F4
:101D900008E0FFFD74010020C0D4010001210846C5
:101DA00000F045BDF0B5054687B0012144F20D00B5
:101DB00000F03DFD4D4F384600F074FE7815ADF84B
:101DC000000003248DF802401820494E8DF80300CE
:101DD0006946304600F029FB3015ADF800000420BC
:101DE0008DF803006946304600F01FFB25208DF872
:101DF000040001218DF805108DF806108DF80710EC
:101E000001A800F046F90020ADF80C00ADF80E0076
:101E1000ADF81000ADF814000C20ADF812000295DA
:101E200002A9384600F090FE012240F225513846C2
:101E300000F00DFF0121384600F000FF01210420D1
:101E400000F0F5FC4FF4FF70ADF8000010258DF8A0
:101E500003508DF802406946304600F0E6FA4FF430
:101E6000FF71304600F057FB0121082000F0DFFC35
:101E70004FF4E040ADF800008DF803508DF80240BB
:101E80001C4C6946204600F0D0FA4FF4E041204651
:101E900000F041FB07B0F0BD38B50121102000F083
:101EA000C6FC4FF48060ADF8000003208DF80200FE
:101EB0001020114C8DF803006946204600F0B5FA59
:101EC0002115204600F027FB38BD08B525208DF8E8
:101ED000000003208DF801008DF8020001208DF82C
:101EE0000300684600F0D5F808BD00000038014046
:101EF00000080140000C01400010014019481A4937
:101F00000068B0FBF1F0B0F1807F12D220F07F408A
:101F1000411E4FF0E0204161144AF02182F8141D67
:101F20000021816107210161016921F00101016145
:101F30007047FEE701B40E48009901604FF0E021C0
:101F40000A6942F001020A6101680029FCD101B06E
:101F5000704707480168002908BF70470168491E9B
:101F60000160704754010020A08601000FE000E0EE
:101F70003400002010B50022511CCAB2815C002937
:101F8000FAD13549D21C4B1D91F800C083F800C02E
:101F900091F801C083F801C09A70C978D970991F6F
:101FA0000978C90019710146581D01F068FFBDE8A4
:101FB0001040012240F22771284800F048BE2DE968
:101FC000F0430446002583B088462E46084601F0BB
:101FD0004FFFC7B2FD208DF8000000208DF80100F2
:101FE000F81C8DF8020001208DF8030040EA04106F
:101FF0001A4C8DF80400E946204619F806104D40A9
:1020000000F06FFE8021204600F0C6FE0028F9D0C7
:10201000761C052EF0D30026002F0ED918F80610D6
:1020200020464D4000F05DFE8021204600F0B4FEC9
:102030000028F9D0761CBE42F0D32946204600F095
:1020400050FE8021204600F0A7FE0028F9D003B002
:10205000BDE8F08301F00CBF3900002000480040CB
:102060000648804706480047FEE7FEE7FEE7FEE732
:10207000FEE7FEE7FEE7FEE7FEE7FEE7193D0008A4
:10208000310100082D4940F0FD7040F0806008608B
:10209000704710B4C27801784FF00F0C012322B3BF
:1020A000264A126801F1E02102F4E062C2F5E06222
:1020B000120AC2F104042CFA02F290F801C00CFAE0
:1020C00004FC8478224042EA0C02120181F80024C8
:1020D000007800F01F0103FA01F14009800000F1CF
:1020E000E020C0F8001110BC704701F01F0003FA97
:1020F00000F04909890001F1E021C1F8800110BC1C
:10210000704721F07F0121F0604108430C490860CD
:1021100070470C4A0029116814BF084321EA0000E7
:10212000106070474FF0E021042808690CBF40F0B0
:10213000040020F004000861704700000CED00E08E
:1021400008ED00E010ED00E001684FF6FE7211406E
:1021500001600021016041608160C160684A694995
:10216000904204BF486840F00F0022D0664A904277
:1021700004BF486840F0F0001BD0644A904204BF9E
:10218000486840F4706014D0614A904204BF4868C7
:1021900040F470400DD05F4A904204BF486840F45C
:1021A000702006D05C4A904204BF486840F470003A
:1021B00001D148607047594A904204D1486840F0C4
:1021C000706048607047564A111F904204BF08680B
:1021D00040F00F0014D0534A904204BF086840F00A
:1021E000F0000DD0504A904204BF086840F470607F
:1021F00006D04E4A904204BF086840F4704001D1B6
:10220000086070474A4A904218BF7047086840F417
:1022100070200860704710B40268D1F820C08B6845
:102220006FF30E1243EA0C03D1E904C44CEA040C28
:1022300043EA0C03D1F818C043EA0C03D1F81CC0E0
:1022400043EA0C03D1F824C043EA0C03D1F828C0B8
:1022500043EA0C031A430260CA6842600A6882605B
:102260004968C16010BC7047002101604160816015
:10227000C160016141618161C1610162416281624C
:1022800070470029016812BF41F001014FF6FE724C
:10229000114001607047002A026814BF114322EA0E
:1022A00001010160704741607047406880B270472B
:1022B000002110F0805F14BF1E4A124A12680242C9
:1022C00018BF01210846704710F0805F19BF1A49F6
:1022D00008600C4948607047002110F0805F14BF0F
:1022E000144A084A1268024218BF01210846704782
:1022F00010F0805F19BF10490860024948607047BC
:1023000008000240000002401C0002403000024071
:1023100044000240580002406C000240800002402D
:10232000080402401C0402403004024044040240FD
:1023300058040240000402400404024010B5A0F119
:102340008041B1F5843129D0A0F18041B1F58631C9
:102350002ED0A0F18041B1F5883133D0A0F1804179
:10236000B1F58A3138D0A0F18041B1F58C313DD042
:10237000A0F18041B1F58E3142D0A0F18041B1F59C
:10238000903118BF10BD0121080200F062FABDE8CB
:10239000104000214FF4807000F05BBA012104204E
:1023A00000F057FA0021BDE81040042000F051BAB7
:1023B0000121082000F04DFA0021BDE8104008205E
:1023C00000F047BA0121102000F043FA0021BDE8D7
:1023D0001040102000F03DBA0121202000F039FA11
:1023E0000021BDE81040202000F033BA0121402038
:1023F00000F02FFA0021BDE81040402000F029BA7B
:102400000121802000F025FA0021BDE81040802045
:1024100000F01FBA10B50121084600F01AFA002199
:10242000BDE81040012000F014BA2DE9F001CB788E
:10243000002203F00F0C13F0100F1CBF8B7843EA3F
:102440000C0C0B784FF00F0613F0FF0F4FF0010547
:1024500018BF04681AD000BF0F8805FA02F31F40A6
:102460009F420FD1970006FA07F824EA08040CFAF5
:1024700007F73C43CF78282F08BF436102D0482F8D
:1024800008BF0361521C082AE6D304600A88FF2AA9
:1024900087BF44680022BDE8F001704702F10803DD
:1024A0000F8805FA03F31F409F420FD1970006FAE9
:1024B00007F824EA08040CFA07F73C43CF78282FE2
:1024C00008BF4361CF78482F08BF0361521C082A18
:1024D000E4D34460BDE8F00170474FF6FF7101801E
:1024E000022181700421C170704702460020926869
:1024F0000A4218BF01207047806880B270470246C8
:102500000020D2680A4218BF01207047C06880B21C
:1025100070470161704741617047002A14BF016133
:1025200041617047C160704741F4803282618161CE
:1025300082618169806970472C4A13684FF6807CFC
:1025400003EA0C0343EA001008431060704728496F
:10255000C861704770B4254A10F0004F14BFD369AA
:102560005368C0F303444FF4401C3CEA00054FEAB3
:10257000505C4FEA0C1C86B206FA0CFC16D010F424
:10258000801F08BF23EA0C0303D0032505FA04F4D7
:10259000A34343F07063002918BF4CEA030310F013
:1025A000004F14BFD361536070BC7047546823F070
:1025B000706324F070645460EDE78A0721F0030132
:1025C00001F1804101F58031120F0F23D1F808C0CD
:1025D00093402CEA03038B608B689040184388601B
:1025E00070470349C1F8DC0070470000000001405B
:1025F00000002042AD48016841F0010101604168DE
:10260000AB4A11404160016821F4102121F0807132
:102610000160016821F480210160416821F4FE011C
:1026200041604FF41F0181607047A0490A6822F49D
:1026300080320A600A6822F480220A60B0F5803F86
:1026400004BF086840F4803006D0B0F5802F06BF84
:10265000086840F4A02070470860704700224309D2
:102660009249012B08BF096803D0022B0CBF096AED
:10267000496A00F01F00012303FA00F0084218BF66
:1026800001221046704781B0002088490090002048
:102690000A6812F4003F18BF0120009A521C0092F1
:1026A000B2F5A06F01D00028F1D0086810F4003016
:1026B00018BF012001B070477C490A6822F0F80277
:1026C00042EAC000086070477A4908607047774A5C
:1026D0005368084323F47C131843506070477549CE
:1026E0000866704771494A6822F003021043486047
:1026F00070476E48406800F00C0070476B494A68AC
:1027000022F0F00210434860704768494A6822F49A
:10271000E06210434860704764494A6822F460529E
:1027200042EAC00048607047604A0029517A14BFED
:10273000084321EA0000507270475E49C1F8D80092
:1027400070475A494A6822F4404210434860704733
:102750005649002281F8202081F82020012803D04A
:1027600004280CBF0520704781F8200070475249AB
:10277000086070474D490A6A1043086270474F4924
:1027800008607047494910B44A6812F00C034C4A7B
:1027900018BF042B01D0082B01D0026015E04A6855
:1027A0004B6802F470124FF0020C13F4803F0CEBF4
:1027B000924203D04B6813F4003F03D0414B5A437D
:1027C000026002E03E4B5A4302604A680F2303EA6C
:1027D00012123D4B9A5CD0F800C02CFA02F2426013
:1027E000D1F804C0072404EA1C2C13F80CC022FA08
:1027F0000CFCC0F808C0D1F804C004EADC2C13F8C3
:102800000C30DA40C2604968032303EA91312F4B50
:10281000595CB2FBF1F1016110BC7047234A0029F9
:10282000516914BF084321EA0000506170471F4AF4
:102830000029916914BF084321EA000090617047A4
:102840001A4A0029D16914BF084321EA0000D06167
:102850007047164A0029D16814BF084321EA0000D6
:10286000D0607047114A0029116914BF084321EA5A
:102870000000106170471649086070470D49C86430
:1028800070470A49C87170470848416A41F0807131
:1028900041627047054A0146002092680A4218BF0B
:1028A0000120704701498872704700000010024003
:1028B0000000FFF800004242800442423C044242D1
:1028C00000127A0000093D00410100203D01002076
:1028D000400442426A480021016041608160C16059
:1028E00041628162C162674A8263C1637047644921
:1028F00010B44A68037DD0F808C0C46843EA0C03EA
:10290000D0F804C022F0FF024CEA040C43EA0C03A6
:10291000D0F800C0006943EA0C0322F4FC421843DB
:102920001043486010BC7047002101750160416090
:102930008160C160016170475349C1F8A0007047D0
:102940004F490A6822F003020A600A6810430860CF
:1029500070474B48006800F003007047484A002960
:10296000D16B14BF084321EA0000D0637047474988
:1029700008607047424902688A60CA68D0E9013C31
:1029800043EA0C03D0E903C04CEA00006FF30A02EB
:1029900018431043C86070470021016041608160A6
:1029A000C1600161704736480069C0B2704738495C
:1029B00081B008440090006801B070473049026857
:1029C0004A6242688A62CA6AD0E9023C43EA0C035E
:1029D000D0E904C04CEA000022F0F702184310438B
:1029E000C86270474FF0FF31016000214160816093
:1029F000C1600161416170472148006B7047204808
:102A0000D0F8800070471E49C1F8800070471C480C
:102A1000806C70471F49086070471F490860704705
:102A20001E49086070471E49086070471649C1F882
:102A3000AC0170471449C1F8B0017047012121EA87
:102A400000001149C1F8B40170470F49C1F8B8013D
:102A500070470B4A01460020526B0A4218BF012002
:102A60007047074988637047054A01460020526B4A
:102A70000A4218BF0120704701498863704700006F
:102A800000800140FF07C000000030428C0530424A
:102A900014800140A0053042A4053042A805304210
:102AA000AC05304210B5A0F18041B1F59C311FD08A
:102AB000A0F18041B1F5884125D0A0F18041B1F568
:102AC00090412BD0A0F18041B1F5984131D0A0F1D7
:102AD0008041B1F5A04118BF10BD01210805FFF7E5
:102AE000C1FEBDE8104000214FF48010FFF7BABED0
:102AF00001218803FFF7ADFEBDE8104000214FF42F
:102B00008040FFF7A6BE01214804FFF7ABFEBDE8F9
:102B1000104000214FF40030FFF7A4BE01218804CB
:102B2000FFF7A0FEBDE8104000214FF48020FFF722
:102B300099BE0121C804FFF795FEBDE810400021B1
:102B40004FF40020FFF78EBE30B50446008A85B0F2
:102B50000D464CF6FF710840E98808432082A089A1
:102B60004EF6F3110840A9882A8911436A89104357
:102B70000843A081A08A4FF6FF410840A989084375
:102B8000A0826846FFF7FEFDA4F18040B0F59C30BE
:102B90000CBF03980298A18911F4004F00EBC0010B
:102BA00001EB0010296814BF49008900B0FBF1F067
:102BB000954A6FF0180CA2FB0031490909010B0975
:102BC00003FB0CF300EB8300A38913F4004F4FF0D9
:102BD000320314BF03EBC00003EB0010A2FB002084
:102BE0004FEA501014BF00F0070000F00F00084338
:102BF000208105B030BD4FF4165101600021818065
:102C0000C18001810C22428181817047028A4FF28A
:102C1000FF031A400B88B1F802C043EA0C03B1F875
:102C200004C0C9884CEA010119431143018270476D
:102C30000021018041808180C18070470029818905
:102C400014BF41F4005121F4005181817047C1F358
:102C5000421301F01F014FF0010C0CFA01F1012B9E
:102C600008BF0C3003D0022B0CBF10301430002AE8
:102C7000026814BF114322EA010101607047002A73
:102C8000828A14BF114322EA010181827047028ABD
:102C900022F00F020282028A114301827047828968
:102CA00022F4006282818289114381817047002968
:102CB000818914BF41F0020121F002018181704736
:102CC000028A22F020020282028A114301827047A6
:102CD0000029018A14BF41F4804121F4804101821E
:102CE0007047C1F30801818070478088C0F30800F5
:102CF0007047818941F0010181817047028BD2B216
:102D00000283028B42EA012101837047028B02F4A5
:102D10007F420283028B1143018370470029818A1D
:102D200014BF41F0200121F0200181827047002969
:102D3000818A14BF41F0100121F010018182704797
:102D40000029818A14BF41F0080121F00801818225
:102D500070470029818914BF41F40041C1F30E017D
:102D6000818170470029818A14BF41F4006121F4F8
:102D7000006181827047828A22F004028282828A04
:102D80001143818270470029818A14BF41F00201FA
:102D900021F00201818270470246002012880A4217
:102DA00018BF01207047C9430180704710B401F07B
:102DB0001F0201240023C1F3421C04FA02F2BCF1F9
:102DC000010F04BFB0F80CC00CEA020208D0BCF13D
:102DD000020F0CBFB0F810C0B0F814C00CEA020229
:102DE000090A008804FA01F10840002A1CBF0028E3
:102DF0000123184610BC7047090A012202FA01F1AA
:102E0000C9430180704700001F85EB513A490020FB
:102E10000860091D0860091D0860091D086038491F
:102E2000364808607047837933490268002B34D0F4
:102E30000B6823EA02020A60091D0A6803689A43C4
:102E40000A60017901F1804101F582310A68036865
:102E50001A430A602B4B19680268914319601A1DC6
:102E60001168D0F800C021EA0C01116041791029E5
:102E700008D001F1804101F582310A6800681043F1
:102E8000086070471968D0F800C041EA0C01196069
:102E900011680068084310607047007900F18040B5
:102EA00000F58230016891430160704700210160A4
:102EB00001710C2242718171704713490A681043F5
:102EC000086070470E4A0146002012680A4218BF87
:102ED000012070470A4908607047074A00211268BC
:102EE000074B02401B6803421CBF002A0121084611
:102EF000704703490860704700040140FFFF0F005E
:102F000014040140080401401004014010B5A0F170
:102F10008041B1F5963159D0B0F1804F6BD0A0F11E
:102F20008041B1F580615CD0A0F18041B1F50061D4
:102F30006BD0A0F18041B1F5406170D0A0F180412B
:102F4000B1F5805175D0A0F18041B1F5A0517AD092
:102F5000A0F18041B1F59A317ED0A0F18041B1F568
:102F6000A6317AD0A0F18041B1F5A83176D0A0F198
:102F70008041B1F5AA3172D0A0F18041B1F5C051C4
:102F80006ED0A0F18041B1F5E0516AD0A0F180414E
:102F9000B1F5005166D0A0F18041B1F5A0317DD0EE
:102FA000A0F18041B1F5A23179D0A0F18041B1F515
:102FB000A43118BF10BD01218804FFF74AFCBDE809
:102FC000104000214FF48020FFF743BC0121C802CC
:102FD000FFF73FFCBDE8104000214FF40060FFF711
:102FE00038BC01210220FFF73DFC0021BDE8104064
:102FF0000220FFF737BC01210846FFF733FC002110
:10300000BDE810400120FFF72DBC01210420FFF78F
:1030100029FC0021BDE810400420FFF723BC01215A
:103020000820FFF71FFC0021BDE810400820FFF733
:1030300019BC01211020FFF715FC0021BDE810404C
:103040001020FFF70FBC01212020FFF70BFC00210F
:10305000BDE81040202006E007E011E01BE028E07A
:1030600032E03BE044E0FFF7FDBB01214803FFF7FE
:10307000F0FBBDE8104000214FF40050FFF7E9BB22
:103080000121C804FFF7E5FBBDE8104000214FF423
:103090000020FFF7DEBB0121080501E033E03DE041
:1030A000FFF7D7FBBDE8104000214FF48010FFF779
:1030B000D0BB01214805FFF7CCFBBDE81040002143
:1030C0004FF40010FFF7C5BB01214020FFF7CAFBFA
:1030D0000021BDE810404020FFF7C4BB0121802043
:1030E000FFF7C0FB0021BDE810408020FFF7BABB0E
:1030F00001210802FFF7B6FBBDE8104000214FF4A4
:103100008070FFF7AFBB01210804FFF7A2FBBDE809
:10311000104000214FF48030FFF79BBB0121480491
:10312000FFF797FBBDE8104000214FF40030FFF798
:1031300090BB10B40288FD4BDFF8F4C3984218BF6F
:10314000604511D0B0F1804F1CBFA0F18044B4F5B0
:10315000806409D0A0F18044B4F500641CBFA0F1E4
:103160008044B4F5406403D14C8822F070022243BD
:10317000A0F18044B4F580541CBFA0F18044B4F5A4
:10318000A05403D0CC8822F44072224302808A8863
:1031900082850A880285984218BF60450DD0A0F14B
:1031A0008042B2F5A0321FBFA0F18042B2F5A23238
:1031B000A0F18042B2F5A43201D1097A0186012141
:1031C000818210BC704710B4028C22F0010202848C
:1031D000028C8388B0F818C00C882CF0730C44EA79
:1031E0000C0C0C8922F0020222434C882243A0F1ED
:1031F0008044B4F596341CBFA0F18044B4F59A34F1
:103200000DD0A0F18044B4F5A0341FBFA0F18044DC
:10321000B4F5A234A0F18044B4F5A4340DD14C89A6
:1032200022F0080222438C8822F0040222438C8977
:1032300023F440732343CC8923438380A0F818C030
:10324000C9888186028410BC704730B4028C22F099
:1032500010020284038CB0F804C0028B0D8822F4A3
:10326000E6444FF6FF7202EA05252C430D8923F050
:10327000200302EA05152B434D8802EA05152B436E
:10328000A0F18045B5F596351CBFA0F18045B5F598
:103290009A3517D14D8923F0800302EA05152B4397
:1032A0008D8823F0400302EA05152B438D892CF409
:1032B000406C02EA850545EA0C0CCD8902EA8502DC
:1032C00042EA0C0CA0F804C00483C9880187038477
:1032D00030BC704730B4028C22F480720284028CBD
:1032E0008388B0F81CC00C882CF0730C44EA0C04E2
:1032F00022F4007C0D894FF6FF7202EA052545EAAB
:103300000C0C4D8802EA052545EA0C0CA0F180451D
:10331000B5F596351CBFA0F18045B5F59A3517D1A6
:103320004D892CF4006C02EA052545EA0C0C8D88C9
:103330002CF4806C02EA052545EA0C0C8D8923F4F7
:10334000405302EA05152B43CD8902EA05121343C7
:1033500083808483C9888187A0F820C030BC7047EF
:1033600030B4028C22F480520284048C8288838BD5
:103370000D8823F4E64C4FF6FF7303EA052545EA72
:103380000C0C0D8924F4005403EA05352C434D88B8
:1033900003EA05352C43A0F18045B5F596351CBFF1
:1033A000A0F18045B5F59A3505D18D8922F480428A
:1033B00003EA85131A438280A0F81CC0C988A0F8CC
:1033C0004010048430BC7047828B22F440628283B8
:1033D000828B4FF6FF7303EA01211143818370470B
:1033E000828B22F00C028283828B1143818370478F
:1033F000028B22F440620283028B4FF6FF7303EAD2
:103400000121114301837047028B22F00C020283D9
:10341000028B1143018370472DE9F05F0E4604468D
:10342000B1F800904148DFF808C1424FDFF8088149
:10343000DFF808E14988B28833894FF6FF75B9F1A2
:10344000000F3ED0B9F1040F7CD0B9F1080FB4F8E9
:10345000209076D029F48059A4F82090B4F81CA0CC
:10346000B4F820902AF4734A05EA022242EA0A02DA
:1034700005EA03331A4305EA013B844218BF644559
:103480000BD0B4F1804F18BFBC4206D044451EBFDC
:10349000744529F40240084303D129F4005040EA5E
:1034A0000B0040F48050A2832084B079A18B21F4DA
:1034B0004061A183A18B05EA00200843A083BDE8F9
:1034C000F09FB4F8209029F00109A4F82090B4F8F6
:1034D00018A0B4F8209005EA03131A432AF0F30A5F
:1034E00042EA0A02844218BF644508D0B4F1804F12
:1034F00018BFBC4203D0444518BF744505D129F01C
:103500000200084340F0010004E029F00A000843EB
:1035100040F0010022832084F088218B21F00C01EF
:103520002183218B08432083BDE8F09F002C0140BC
:10353000003401400004004000080040000C00403E
:1035400000E00DE0204600F0A3FBB079218B21F4D0
:1035500040612183218B05EA002008432083E3E7B3
:1035600029F48079A4F82090B4F81CA0B4F8209035
:1035700005EA03131A432AF0F30A05EA012B42EA8B
:103580000A02844218BF64450BD0B4F1804F18BFC3
:10359000BC4206D044451EBF744529F42060084350
:1035A00003D129F4007040EA0B0040F48070A2833C
:1035B0002084F088A18B21F00C01A183A18B08430A
:1035C000A083B1E72DE9F05F0D4649880026012769
:1035D0000446002908BF0226AA88012A08BF02273C
:1035E0002888DFF82897DFF828A7DFF828B72B8985
:1035F0004FF6FF78002843D0204600F049FBA87919
:10360000218B21F440612183218B08EA00200843AB
:1036100020832989208C20F001002084228B208C9B
:1036200008EA011122F0F302394311435C4518BF47
:103630004C451FD0B4F1804F18BF54451AD0A4F1A7
:103640008043B3F500631CBFA4F18043B3F540632E
:1036500010D020F00A00304340F001002183208484
:10366000E888218B21F00C012183218B08432083E2
:10367000BDE8F09F20F00200304340F00100EDE78C
:10368000208C20F001002084B4F818C0208C08EAB7
:1036900003131A432CF0F30C42EA0C025C4518BFEA
:1036A0004C452FD0B4F1804F18BF54452AD0A4F117
:1036B0008043B3F500631CBFA4F18043B3F54063BE
:1036C00020D020F00A00084340F00100228320842B
:1036D000E888218B21F00C012183218B0843208372
:1036E0002B893A463146204600F0D2FAA879218B40
:1036F00021F440612183218B08EA002008432083C4
:10370000BDE8F09F20F00200084340F00100DDE733
:103710000A884B88B1F806C01A438B8843EA0C0329
:103720001A430B891A434B8989891A431143A0F81C
:10373000441070474FF6FF71818000210180C180E5
:103740004180017270470021018041808180C180E9
:10375000018141818181C1817047002101804180C7
:1037600001228280C1800181704700210180418057
:103770008180C18001814181818170470029018858
:1037800014BF41F0010121F00101018070470029BF
:10379000B0F8441014BF41F40041C1F30E01A0F889
:1037A00044107047002A828914BF114322EA0101A4
:1037B00081817047818270471143A0F8481070479B
:1037C000002A828914BF114322EA010181817047D6
:1037D000018921F0070101817047028922F07002FE
:1037E000114301817047028922F070021143018167
:1037F000018941F007010181704770B594460D467B
:103800000446602943D0208C20F001002084218BC5
:10381000208C4FF6FF7202EA031221F0F30142F00E
:1038200001021143A4F18042B2F596321CBFA4F10B
:103830008043B3F59A3323D0B4F1804F1CBFA4F179
:103840008043B3F580631BD0A4F18043B3F50063DC
:103850001CBFA4F18043B3F5406311D020F00A00EF
:1038600040EA0C0040F0010021832084208920F0F0
:10387000700028432081208940F00700208170BD1E
:1038800020F0020040EA0C0040F00100ECE70122C9
:10389000614600F0FDF9E9E710B4B0F808C04FF652
:1038A000FF7404EA03231A430CF0FF0C114341EAAE
:1038B0000C01018110BC704710B4B0F808C04FF67D
:1038C000FF7404EA03231A430CF0FF0C114341EA8E
:1038D0000C010181018941F07701018110BC704721
:1038E00010B4B0F808C04FF6FF7404EA03231A437B
:1038F0000CF0FF0C114341EA0C010181018941F4F4
:103900008041018110BC7047018582827047028826
:1039100022F0700211430180704730B40589B0F87D
:1039200018C0048C25F0070529432CF0030C2CF457
:10393000407C40F201154CEA050C4FF6FF7505EA94
:10394000031324F022041A4322430181A0F818C073
:10395000028430BC7047028B22F070021143018355
:103960007047028B4FF6FF7322F4E04203EA012115
:10397000114301837047828B22F0700211438183CF
:103980007047828B4FF6FF7322F4E04203EA012175
:103990001143818370470029018814BF41F08001E1
:1039A00021F08001018070470029818814BF41F017
:1039B000040121F00401818070470029818814BF2F
:1039C00041F0080121F008018180704700298188B9
:1039D00014BF41F0010121F0010181807047028B89
:1039E00022F00802114301837047028B4FF6FF73E8
:1039F00022F4006203EA0121114301837047828BA4
:103A000022F00802114381837047828B4FF6FF73C7
:103A100022F4006203EA0121114381837047028B83
:103A200022F00402114301837047028B4FF6FF73AB
:103A300022F4806203EA0121114301837047828BE3
:103A400022F00402114381837047828B4FF6FF738B
:103A500022F4806203EA0121114381837047028BC3
:103A600022F08002114301837047028B4FF6FF73EF
:103A7000C2F30E0203EA0121114301837047828BD6
:103A800022F08002114381837047828B4FF6FF73CF
:103A9000C2F30E0203EA0121114381837047028CB5
:103AA00022F00202114301847047028C22F00802C6
:103AB000114301847047028C4FF6FF7322F02002FD
:103AC00003EA0111114301847047028C4FF6FF7322
:103AD00022F0800203EA0111114301847047028C35
:103AE0004FF6FF7322F4007203EA012111430184AF
:103AF0007047028C4FF6FF7322F4006203EA012143
:103B0000114301847047028C4FF6FF7322F4005278
:103B100003EA01311143018470470123B0F820C04A
:103B20008B402CEA03030384038C02FA01F119434E
:103B3000018470470423B0F820C08B402CEA0303B3
:103B40000384038C02FA01F119430184704710B415
:103B50004FF0010C048C00F118030CFA01FC24EA6C
:103B60000C0CA0F820C0002918BF082910D0081F8D
:103B7000C0F34E001844016821F4E041016001687F
:103B80004FF6FF7303EA02221143016010BC704735
:103B900003EB5100016821F07001016001681143DD
:103BA000016010BC70470029018814BF41F0020178
:103BB00021F00201018070470029018814BF41F003
:103BC000040121F00401018070470029818814BF9D
:103BD00041F0800121F0800181807047028822F04D
:103BE000080202800288114301807047828822F017
:103BF000700282808288114381807047028922F09E
:103C0000070202810289114301817047028922F073
:103C100080020281028911430181704781847047CB
:103C2000818570478186704701877047818770471B
:103C3000A0F840107047028822F440720280028887
:103C4000114301807047808E7047008F7047808FCE
:103C50007047B0F840007047808C7047008D704707
:103C600002460020128A0A4218BF01207047C94349
:103C700001827047038A002280890B4200EA01001A
:103C80001CBF0028012210467047C94301827047BB
:103C900070B4B0F820C02CF0100CA0F820C0068B37
:103CA000B0F820C04FF6FF7426F4734604EA0333DD
:103CB000334304EA02221A43A0F1804304EA0115C7
:103CC000B3F596331CBFA0F18043B3F59A3314D0FB
:103CD000B0F1804F1CBFA0F18043B3F580630CD0DE
:103CE000A0F18043B3F500631FBFA0F18043B3F59B
:103CF00040632CF0A003194302D12CF0200129438A
:103D000041F010010283018470BC7047003401400F
:103D100000040040002C01404D4882B0016841F091
:103D20000101016041684B4A11404160016821F482
:103D3000102121F080710160016821F4802101606F
:103D4000416821F4FE0141604FF41F0181600022AF
:103D500001920092016841F480310160016801F430
:103D6000003100910199491C0191009919B90199FB
:103D7000B1F5A06FF2D1016811F4003F08BF0092C5
:103D800033D00121009134490A6842F010020A60E0
:103D90000A6822F003020A600A6842F002020A601E
:103DA0004168416041684160416841F4806141601F
:103DB000416821F47C114160416841F4E81141609F
:103DC000016841F080710160016811F0007FFBD053
:103DD000416821F003014160416841F00201416006
:103DE000416801F00C010829FAD11C494FF000602C
:103DF000086002B0704716494868194A10F00C0371
:103E0000184818BF042B01D0082B01D0026015E020
:103E10004A684B6802F470124FF0020C13F4803FB2
:103E20000CEB924203D04B6813F4003F03D00E4BCF
:103E30005A43026002E00A4B5A43026049680B4A47
:103E4000C1F30311515C026822FA01F1016070476D
:103E5000001002400000FFF80020024008ED00E0E2
:103E600000127A005401002000093D005801002092
:103E7000421C10F8011B0029FBD1801A7047034631
:103E800011F8012B00F8012B002AF9D118467047D0
:103E9000064C074D06E0E06840F0010394E8070097
:103EA00098471034AC42F6D3FCF746F9283F000897
:103EB000483F000870B58C1810F8015B15F0070337
:103EC00001D110F8013B2A1106D110F8012B03E0B3
:103ED00010F8016B01F8016B5B1EF9D12B0705D4BB
:103EE0000023521E0DD401F8013BFAE710F8013B04
:103EF000CB1A921C03E013F8015B01F8015B521E20
:103F0000F9D5A142D8D3002070BD02E008C8121F25
:103F100008C1002AFAD170477047002001E001C1B2
:103F2000121F002AFBD17047483F00080000002004
:103F300068010000B43E00086C3F000868010020E2
:103F4000D0D000001A3F00084152B41A0102012BE0
:103F50002AFD3202FE2045020406082D0102030458
:0C3F600004450607080984A24A046917FA
:0400000508000131BD
:00000001FF
